:020000040800F2
:10000000F026002045010008CD1E000865170008F5
:100010003D1E00081D050008B15C0008000000003E
:10002000000000000000000000000000BD310008DA
:10003000BD0C0008000000007B1F0008FD3900080F
:100040005F0100085F0100085F010008D12000087F
:100050005F0100085F0100081B0F0008AD0F0008DA
:10006000C10F00084D100008631000085F01000870
:100070005F0100085F0100087D0C00085F010008B7
:100080005F0100089D0C00085F0100085F01000887
:100090005F0100085F0100085F0100087910000897
:1000A0005F0100085F0100085F0100085F010008B0
:1000B000813B00085F0100085F0100085F01000844
:1000C0005F0100085F0100085F0100085F01000890
:1000D0005F010008F95A0008895B0008695C0008A4
:1000E0002D0F00085F0100085F0100085F01000894
:1000F0005F0100085F0100085F0100085F01000860
:100100005F0100085F0100085F0100085F0100084F
:100110005F0100085F0100087D3E0008553F0008B0
:100120005F0100085F0100085F0100085F0100082F
:10013000DFF80CD000F018F800480047BD6D00084B
:10014000F02600200648804706480047FEE7FEE705
:10015000FEE7FEE7FEE7FEE7FEE7FEE7FEE7FEE777
:10016000253A000831010008064C074D06E0E0681A
:1001700040F0010394E8070098471034AC42F6D3EE
:10018000FFF7DAFF787B0008987B000870B58C18C1
:1001900010F8015B15F0070301D110F8013B2A119B
:1001A00006D110F8012B03E010F8016B01F8016B88
:1001B0005B1EF9D12B0705D40023521E0DD401F884
:1001C000013BFAE710F8013BCB1A921C03E013F84D
:1001D000015B01F8015B521EF9D5A142D8D3002082
:1001E00070BD0000002043490860091D08600846F2
:1001F000006840F0010008600846006840F0080010
:10020000086000BF3B48001D006800F0080000289F
:10021000F8D13848001D006840F004003549091D38
:10022000086000BF3348001D006800F0040000288B
:10023000F8D13048006820F440002E4908602D486D
:10024000083000682C4908432A4908310860081D15
:1002500000682A49084327490C3108602548303096
:10026000006827490843234930310860081F0068A7
:10027000244908431F492C310860081F006842F2D6
:100280000F5108431B49283108600846006840F4B4
:10029000600008601748006840F4807015490860E5
:1002A000081D006840F48010091D086008460068B9
:1002B000154908430F49091D08600846006840F0C9
:1002C000010008600846006840F4800008600020D3
:1002D0000E4988604FF4B460886006484830086171
:1002E0000B4848610F20C8600846806840F0010054
:1002F00088607047042401402449020024099224A4
:100300006AB106026214731C00010E000000024074
:100310003005002010B52B48006800F4004000288C
:100320004FD129480078F8B92848006840F40040C7
:1003300026490860032002F019FF25480068C0F331
:10034000074002F013FF22480088C0F3072002F0A4
:100350000DFF1F49087802F009FF00201D490860C1
:100360000120194908702CE017480078012828D18D
:10037000FF2002F0FBFE18490870084602780221AF
:10038000002005F029FF13480068401C114908604F
:100390000846006811490968884212D90B48001FB5
:1003A000006840F400400949091F0860054808300A
:1003B000006840F400400349083108600220024907
:1003C000087010BD08180140B50000201408014055
:1003D000B8000020C0000020B4000020BC000020B5
:1003E0007047000000B500223048806800F04000EF
:1003F000002853D02E4800682E490968421A002A66
:1004000017DDB2F5967F05DD2B480068401D2A49AF
:10041000086006E0502A04DD27480068401C264991
:10042000086025480068632818DD642022490860B8
:1004300014E012F1640F09DA1F48006805280DDD89
:100440001D480068401F1C49086007E012F1500F6A
:1004500004DA19480068401E174908601648006809
:100460000A2802DA0A201449086013480068134970
:1004700008601048006868B911480068401C1049BD
:100480000860084600680A280BD90020086002F0BE
:10049000BFFE06E000200A49086002E0002008498B
:1004A000086000200349086000BD00000010014002
:1004B0007801002070010020740100203C340140CC
:1004C0008001002010B50446606800F07F40B0F164
:1004D000006F1BD120680E490840B0F1005F15D1B4
:1004E00072B671B6A4F100614FF0006006F0CAFE6A
:1004F0006068084908600846006807490860206885
:1005000080F3088800BF08460068804710BD0000DF
:100510000000FE2F840100208801002000BFFEE7BC
:10052000174800684FF68F7108401549086040F27F
:10053000E73013492C3108600020091F08600120B2
:100540000F4914310860C0030D494431086001208F
:100550000B492031086068200949183108600020E3
:10056000091D08600648006840F0810004490860E1
:100570000448406840F480500249486070470000D9
:10058000000800400000014070B500250024D44858
:100590000078012806D0D248C07800B970BD042088
:1005A000CF49C870CE48C078052876D2DFE800F081
:1005B000030A41F7F600CA480078012801D1C8496A
:1005C000C8701FE10020C7490880FFF7A9FF00F0AD
:1005D00063FEC54908800120C1494870182002F017
:1005E00043FF4FF4407000F078FC00F07FFE40F2D3
:1005F0007261884206DA0120B94988700020BB493F
:10060000088006E00220B64988704FF4FA70B749B6
:1006100008800020B6490860B64908703220B64903
:1006200008800220AE49C87000204860B3490870B5
:10063000E8E0B3480078401CC0B2B1490870042813
:1006400001DB0020087000F051FE04B2B4F5D76F52
:100650000BDDA8480078401CC0B2A64908700328EA
:1006600006DD04209E49C870CCE00020A149087036
:100670009C480088B0F5B47F03DD0320984988705A
:10068000C0E0A048808898490988884206DA9648E0
:10069000008800F06BFE054601E0AFE0002540F267
:1006A0004C4084420DDD9648007868B99248008835
:1006B000B0F5167F08DA90480088401C8E49088003
:1006C00002E032208C49088085488078012804D0D7
:1006D00002282AD0032878D162E040F27C6084426C
:1006E00003DB02207E49887073E0834800888542DE
:1006F00009DD7E480088022816DD7C480088401EFF
:100700007A49088010E07C48008885420CDA7C48F1
:10071000007848B975480088B0F57A7F04DA7348E4
:100720000088401C7149088053E040F27C6084429C
:100730001BDD72480078401C40B2704908700846C2
:1007400090F9000005280ADB00200870674800883F
:10075000002804DD65480088401E64490880322D69
:100760001BDA03205E49887017E064480078401E59
:1007700040B262490870084690F9000010F1050F78
:100780000BDC0020087059480088B0F57A7F04DA45
:1007900056480088401C554908801AE024E01EE0B5
:1007A00000205249088003204D49C8704FF4007062
:1007B00000F093FBB4F5C86F05DC002049490880C0
:1007C00001204749887004E0FFE70320444988700E
:1007D00000BF00BF454800884549086012E04FF45B
:1007E000007000F07AFB0DE00020414908604815D8
:1007F00000F073FB00203A49C87003E00420384938
:10080000C87000BF00BF3648406810F1100F04D216
:1008100033484068401C3249486039480078002815
:100820005CD139480078401C374908700846007888
:10083000142853DD00200870224634A1354807F003
:1008400082F8344807F048F833A007F045F8264806
:10085000028832A12F4807F076F82E4807F03CF8BE
:100860002DA007F039F82748828831A1294807F0E0
:100870006AF8284807F030F827A007F02DF82A4634
:1008800030A1244807F05FF8224807F025F822A09D
:1008900007F022F8134802882CA11E4807F053F8ED
:1008A0001C4807F019F81CA007F016F81048026859
:1008B00028A1184807F047F8164807F00DF816A0C9
:1008C00007F00AF80648827824A1124807F03BF89E
:1008D000104807F001F810A006F0FEFF00BF5DE62B
:1008E0000000002040000020440000200C000020F8
:1008F00034080040080000200A0000200E000020FC
:1009000009000020300500200F000020563A256421
:100910000A000000E91500200D000000675F626119
:1009200073656C696E656164633A25640A00000052
:100930006E6F775F626173656C696E656164633A5F
:1009400025640A00433A25640A000000543A2564ED
:100950000A00000050574D3A25640A004D3A2564BC
:100960000A0A0000014908707047000000000020DA
:100970001CB500250027002600F056FD80464246A3
:100980008FA1944806F0DFFF924806F0A5FF92A0E1
:1009900006F0A2FF00209149088000F045FD55288F
:1009A0006ED18F48006840F400408D4908600120F6
:1009B0008A490880002000900346024601460190C3
:1009C00002F0A8FC00200090034602460146019078
:1009D00002F0B8FC06F0E6F8002406E0814901EBDD
:1009E000842006F041F8601CC4B2E62CF6DB06F069
:1009F00025F800251BE00020019005F5C011042218
:100A000001A805F09FF99DF8070000069DF8061063
:100A100000EB01409DF8051000EB01209DF804104B
:100A2000471870496818394600F0C6FB2D1DB5F50A
:100A3000663FE0D36CA1674806F085FF654806F085
:100A40004BFF65A006F048FF642005F0ABFD65484C
:100A5000FFF738FD13E06AA15E4806F074FF5D48B9
:100A600006F03AFF5CA006F037FFAA2002F0DAFC9D
:100A7000642005F097FD4FF00060FFF723FDEAE7E3
:100A800000F0D2FCAA2872D1002001210B460A46B0
:100A9000CDE90010084602F03DFC0020009003461E
:100AA00002460146019002F04DFC192002F0DCFCE8
:100AB0004FF47A7005F076FD57E0761C5748864271
:100AC00000D900265648006800F4005050B30120B9
:100AD000FFF748FF002000900346024601460190C0
:100AE00002F018FC002001210B460246CDE900105F
:100AF000014602F027FC4FF47A70B6FBF0F000F0EC
:100B0000FF084FF47A70B6FBF0F000F0FF09002008
:100B10004B4602460146CDE9008002F02BFCFFF770
:100B200033FD12E00020FFF71DFF01200090034677
:100B300002460146019002F0EDFB002000900346C2
:100B400002460146019002F0FDFB00F07BFC08B17B
:100B500006F01CFF042000F02DFC642805DD1920A0
:100B600002F082FC002006F0EFFAA6E7FFE72DA1D5
:100B7000184806F0E8FE174806F0AEFE16A006F08C
:100B8000ABFE4FF47A7005F00DFD1648FFF79AFCA6
:100B900014E02AA10F4806F0D6FE0E4806F09CFE8F
:100BA0000DA006F099FEAA2002F03CFC4FF47A70EA
:100BB00005F0F8FC4FF00060FFF784FCE9E7000067
:100BC000557067726164655F466C61673A25780AA3
:100BD00000000000E91500200D0000004200002088
:100BE0001018014000C00008426F6F744C6F6164C0
:100BF00065725F4A756D705F307835350A000000A8
:100C0000426F6F744C6F616465725F4A756D705F9F
:100C1000307835355F66616C69650A00A086010031
:100C200008140140426F6F744C6F616465725F4AD3
:100C3000756D705F6170700A00000000426F6F7424
:100C40004C6F616465725F4A756D705F6170705F53
:100C500066616C69650A000010B505F0E9FA0020CC
:100C600005F014FB0021084605F022FB002005F0EA
:100C7000FBFA002005F0E6FA10BD00000648006807
:100C800000F40050B0F5005F05D10348406840F41F
:100C90000050014948607047000002400648006863
:100CA00000F00070B0F1007F05D10348406840F0CB
:100CB000007001494860704700000240704730B53D
:100CC00004460D462946204604F0F8FE30BDF0B536
:100CD00004460E460025274600E06D1C14F8011B53
:100CE0000029FAD13C46012E04D0022E07D0042E52
:100CF0000FD109E0A8B22146FFF7E1FFF0BDA8B28D
:100D00002146FFF7DCFFF9E7A8B22146FFF7D7FF3E
:100D1000F4E700BFF2E700B50246104604F00EFF0C
:100D200000BD10B5002002F057FB02F089FA002147
:100D3000084602F089FB05F071F90021084602F02F
:100D40006BFB04F093FE10BD00B5002002F038FAF2
:100D5000002002F049FA0348006840F4805001493D
:100D6000086000BD101801401CB50446082C7BD259
:100D7000DFE804F0041D2E478D7B609E002000906C
:100D8000034602460146019002F0C4FA002000909A
:100D900001231A460146019002F0D4FA6420009023
:100DA000034602460146019002F050FA93E000200B
:100DB0000090034602460146019002F0ABFA002083
:100DC0000090012302461946019002F0BBFA82E02E
:100DD00000200090034602460146019002F09AFA74
:100DE0000020009001231A460146019002F0AAFA61
:100DF00064200090034602460146019002F026FA64
:100E000069E000200090034602460146019002F08E
:100E100081FA0020009001231A460146019002F059
:100E200091FA64200090034602460146019002F0C8
:100E30000DFA50E000200090034602460146019062
:100E400002F068FA0020009001231A460146019042
:100E5000184602F077FA64200090034602460146E5
:100E6000019002F0F3F936E034E0002000900346F0
:100E700002460146019002F04DFA00200090012345
:100E8000024601460190184602F05CFA23E0002079
:100E90000090012302460146019002F053FA00201F
:100EA0000090034602460121019002F033FA12E05D
:100EB0000020009001231A4619460190184602F0BE
:100EC00041FA00200090034602460146019002F0DC
:100ED00021FA00E000BF00BF1CBD00B50246B2F51C
:100EE000807F06D1002002F0F7F9012002F000FA1D
:100EF00012E0B2F5007F06D1012002F0EDF90020EA
:100F000002F0F6F908E0B2F5407F05D1012002F0C9
:100F1000E3F9012002F0ECF900BD10B5012005F065
:100F20002BFD10B1012005F021FD10BD10B54FF4CF
:100F3000806005F021FD18B14FF4806005F016FDCA
:100F40004FF4006005F018FD18B14FF4006005F093
:100F50000DFD4FF4805005F00FFD18B14FF4805097
:100F600005F004FD4FF4005005F006FD18B14FF4F4
:100F7000005005F0FBFC4FF4804005F0FDFC40B153
:100F80004FF4804005F0F2FC07480068401C064919
:100F900008604FF4004005F0EFFC18B14FF400403A
:100FA00005F0E4FC10BD00007001002010B5022027
:100FB00005F0E2FC10B1022005F0D8FC10BD0000E5
:100FC00010B5042005F0D8FC10B3042005F0CEFCC9
:100FD0001848008801282BDD002016490880164893
:100FE0000088401C1449088014480068401C1349BC
:100FF00008601348007801280BD112480068401C93
:101000001049086010480088401C00B20E49088052
:101010000EE00B48007802280AD10A480068401EFA
:101020000849086008480088401E00B20649088048
:1010300010BD0000560000203C01002048010020A7
:1010400035010020540100205801002010B508206F
:1010500005F092FC20B1082005F088FC01F0E6F9CB
:1010600010BD10B5102005F087FC20B1102005F050
:101070007DFC01F0DBFC10BD10B5202005F07CFCF0
:1010800020B1202005F072FC01F04AFE402005F05E
:1010900073FC10B1402005F069FC802005F06CFC69
:1010A00020B1802005F062FC01F03AFB4FF4807023
:1010B00005F062FC28B14FF4807005F057FC01F098
:1010C0003BF84FF4007005F057FC18B34FF4007074
:1010D00005F04CFC1848008801282BDD002016493B
:1010E000088016480088401C14490880144800688D
:1010F000401C134908601348007801280BD112489E
:101100000068401C1049086010480088401C00B26C
:101110000E4908800EE00B48007802280AD10A48E0
:101120000068401E0849086008480088401E00B258
:101130000649088010BD0000580000203E01002034
:101140004C01002034010020500100205A010020F1
:1011500041F230100949886043F21100C860342020
:1011600008614FF44C704861054806490860091D44
:101170000860091D0860091D0860704700000140F3
:10118000BE6302000004014000B50A48006840F058
:10119000200008490860012002F012F8012002F046
:1011A00023F80448001D006840F480500149091DDF
:1011B000086000BD1018014070B504460D4605F0EA
:1011C000F1FC2946204605F00FFD05F037FC70BD07
:1011D0000020234908602348091D08602248406810
:1011E00040F00070204948601D481030006840F40D
:1011F00000401B49103108601C481D4908601D480B
:10120000091D08604FF033401B4908601B484860C7
:101210001548406840F08050134948601848194903
:1012200008601948091D08600F48406840F0080030
:101230000D4948601548164908601648091D0860A0
:1012400013481030006840F0200011491031086048
:101250000548406840F0C0000349486070470000FE
:1012600000080140B78808300000014000888888E5
:10127000000C01407B8B3338001001408BBB7B445A
:101280008838B3880014014088334B387788373367
:1012900000180140B8B8B33B70B5002400251148D0
:1012A000006840F040000F490860642005F07AF9BA
:1012B00000BF07E00A2005F075F90B488088044458
:1012C000681CC5B20A2DF5DB0648001D006840F019
:1012D00040000449091D08600A20B4FBF0F4A0B2E4
:1012E00070BD0000101801403005002070B50024CA
:1012F000002500BF07E00D48008804440A2005F0DF
:1013000051F9681CC5B20A2DF5DB0A20B4FBF0F4D4
:101310004FF4A57104FB01F04FF47A714843000BC0
:10132000B421B0FBF1F4A0B270BD00003005002084
:1013300000200C49096801F0040131B90949096824
:1013400001F0040109B940F010000749096801F4EF
:10135000006131B90449096801F4006109B940F03C
:1013600020007047081801400808014070B5054684
:101370000024002600BF07E00D48808804440A20AE
:1013800005F010F9701CC6B20A2EF5DB0A20B4FB7A
:10139000F0F4A54208D9281B4FF4A5714843040B6B
:1013A00004EB8400440000E00024A0B270BD000003
:1013B0003005002070B5054600240CE0601CC4B266
:1013C000C82C00DD08E0642005F0ECF800F0DAF944
:1013D000A84200D000E0F1E700BF204670BD000049
:1013E00070B505460024002600BF07E00D48808840
:1013F00004440A2005F0D6F8701CC6B20A2EF5DBAC
:101400000A20B4FBF0F4AC4209D9601B4FF4A5717B
:101410004843040B04EB84004400143400E000242F
:10142000A0B270BD3005002010B5024804F0FEFCEB
:1014300010BD000000FC1F0001480078704700004C
:101440007C01002001480078704700008C010020DA
:101450000148007870470000F400002010B55520C6
:1014600004498870C8700871FF2088730F2000F04D
:101470003DF810BD2201002010B5044614B31748F2
:10148000006840F08000154908604FF4FA7005F0DC
:1014900089F81248001F006840F080000F49091FBA
:1014A000086040F6B83005F07DF800F027F800F04D
:1014B0000DF947F6FF700A4908800A4908800A4971
:1014C000088009E000F03AF947F6FF700449088007
:1014D000044908800449088010BD00001418014028
:1014E00012010020100100200E01002030B504463A
:1014F0000D462946204604F099FB30BD10B5EE207C
:1015000004498870C8700871CA2088730F20FFF7DB
:10151000EDFF10BD220100202DE9F041014600271A
:1015200040480088401CDFF8FCC0ACF80000487858
:10153000000204B20878204404B2C878000205B260
:101540008878284405B24879000206B20879304408
:1015500006B260194FF6FF7C604407B2B74202D072
:101560000020BDE8F0810878DFF8BCC08CF80000EE
:101570002E480088DFF8B4C0ACF802002C48008880
:10158000DFF8ACC0ACF80200087891F801C04FF465
:101590007F4808EA0C2C40EA0C00404200B2DFF819
:1015A0008CC0ACF80000887891F803C008EA0C2CD5
:1015B00040EA0C0003B21F4803805A4248F6A0409C
:1015C000104448F6A04C90FBFCF80CFB18020A20D3
:1015D00092FBF0F2DFF860C0ACF80020DFF850C0FA
:1015E000ACF8002060460088BCF802C0A0EB0C00FC
:1015F000DFF848C0DCF800C06044DFF840C0CCF839
:10160000000047F6FF70DFF838C0ACF80000DFF8E4
:1016100034C0ACF80000DFF830C0ACF800000120A6
:101620009FE700001C010020F7000020FE000020C2
:10163000F80000201E010020FC00002018010020FE
:101640000E010020100100201201002010B50446F8
:101650001A48007828B9FF2C03D1012017490870D7
:101660002BE01648007801280BD1FF2C03D1022073
:101670001249087021E00020114908700F490870D4
:101680001BE00E480078022817D10E480C49097853
:1016900044540B480078401C0949087008460078FB
:1016A0000B280AD100200870044908700548FFF78C
:1016B00033FF10B101200449087010BDF60000206E
:1016C000F5000020DC050020F400002000200D497A
:1016D00008700D4800880D49088000200C490860FA
:1016E0000C4908800C48B0F900000C4908800C48EF
:1016F000B0F900000B4908800B48B0F900000B4915
:101700000880704720010020F8000020140100200C
:10171000180100201C010020020100200E01002001
:1017200006010020100100200A0100201201002003
:101730000149087070470000F400002010B5FF2038
:1017400007498870C8700871FD2088730F20FFF763
:10175000CDFE642004F026FFFFF780FE10BD0000E0
:101760002201002000BFFEE710B5044600F00AF891
:10177000204020B10220FEF733FE012010BD0020E2
:10178000FCE7000000201249096801F0020131B9AC
:101790000F49096801F0020109B940F002000C4943
:1017A000096801F0010131B90949096801F0010135
:1017B00009B940F001000649096801F0040131B996
:1017C0000349096801F0040109B940F004007047B9
:1017D0000814014010B5FC48007810B10020FB4906
:1017E0000870FB48007810B10020FA490870FA48E8
:1017F000007810B10020F9490870F948007810B15C
:101800000020F8490870F848007810B10020F74926
:1018100008700120F6490870EC48007810B10020EB
:10182000E9490870EB48007810B10020E8490870D9
:10183000EA48007810B10020E7490870E9480078CC
:1018400010B10020E6490870E848007810B1002087
:10185000E5490870E648007810B10020E5490870B5
:10186000E5480078632805DAE3480078401CE2493F
:10187000087002E00120E0490870E048008842F268
:101880001071884205DADD480088401CDB49088079
:1018900002E00020D9490880D948008800285CD09F
:1018A000D6480088D749098888420AD1D6480078A6
:1018B000401CD549087008460078042801DD012045
:1018C0000870D1480078012805D1D048006840F45C
:1018D0000060CE490860CC48007802280BD1CB4884
:1018E000006840F40060C9490860C948006840F4D5
:1018F0000040C7490860C4480078032811D1C34894
:10190000006840F40060C1490860C148006840F4C4
:101910000040BF490860BD48006840F48060BB4992
:101920000860B9480078042817D1B848001D00683D
:1019300040F40060B549091D0860B548001D006805
:1019400040F40040B249091D0860B048001D00681D
:1019500040F48060AD49091D0860AE48407E012812
:1019600013D140F6C410AC490880AC48008841F25D
:101970008831884205DAA9480088401CA7490880B8
:101980003FE00020A54908803BE0A248407E0228B5
:1019900013D143F69820A0490880A048008847F258
:1019A0003051884205DA9D480088401C9B490880D8
:1019B00027E000209949088023E09648407E0328CC
:1019C00003D09448407E062806D100209249088022
:1019D00001209249088014E08E48407E042803D0FC
:1019E0008C48407E052806D101208B4908800020C4
:1019F0008A49088005E0002087490880012087493E
:101A0000088071480078A8B300F020FA032825D197
:101A10007A480088642190FBF1F0814908700846FB
:101A20000078632805DD7F480078C0F101007D491A
:101A300008707C48007820B17948007878490870AF
:101A400005E077480078C0F1640075490870744873
:101A50000078012802DA0020714908707048007887
:101A600065490978884206DB6848006840F40060F0
:101A70006649086007E06548001D006840F40060A2
:101A80006249091D086052480078A0B16648007894
:101A900059490978884206DB5D48006840F40040F7
:101AA0005B49086007E05A48001D006840F40040A8
:101AB0005749091D086048480078A0B15B48007884
:101AC0004D490978884206DB5048006840F4806040
:101AD0004E49086007E04D48001D006840F48060F2
:101AE0004A49091D08603E480078A0B15048007876
:101AF00041490978884206DB4448006840F01000FC
:101B00004249086007E04148001D006840F01000AD
:101B10003E49091D086034480078A0B14548007866
:101B200035490978884206DB3848006840F00800EB
:101B30003649086007E03548001D006840F008009D
:101B40003249091D08602B480078A0B13A48007856
:101B500029490978884206DB2C48006840F4004097
:101B60002A49086007E02948001D006840F4004049
:101B70002649091D086015480078A0B11F48008853
:101B800020490988884206DA2048006840F400604D
:101B90001E49086007E01D48001D006840F4006011
:101BA0001A49091D08600B48007860B11348008885
:101BB00014490988884241DA1548006840F4004019
:101BC0001349086040E03FE09C000020A200002094
:101BD0009D000020A30000209E000020A400002003
:101BE0009F000020A5000020A0000020A6000020EB
:101BF000A7000020A1000020A8000020AC000020C9
:101C000042000020AE000020AA0000201014014075
:101C1000100C014068050020B2000020B000002038
:101C200096000020A90000209700002098000020C6
:101C3000990000209A0000209B0000205E48006868
:101C400040F400405C4908605C480078A0B15C4802
:101C500000885C490988884206DA5B48006840F4DD
:101C600080605949086007E05748001D006840F44B
:101C700080605549091D086054480078A0B150485B
:101C8000008850490988884206DA4F48006840F0C9
:101C900010004D49086007E04B48001D006840F007
:101CA00010004949091D086049480078A0B144481E
:101CB000008844490988884206DA4348006840F0B1
:101CC00008004149086007E03F48001D006840F0F7
:101CD00008003D49091D08603E480078A0B13E4813
:101CE00000883E490988884206DA3748006840F48F
:101CF00000403549086007E03348001D006840F4A3
:101D000000403149091D086035480088F0BB35485E
:101D1000007850B93448007838B92B48001D006865
:101D200040F400602849091D08603048007840B937
:101D30002F48007828B92048006840F400401E4928
:101D400008602C48007850B91C48007838B91E4803
:101D5000001D006840F480601B49091D086026488A
:101D6000007850B91948007838B91748001D006844
:101D700040F010001449091D08602048007860B93F
:101D80001348007848B91048001D00E013E00068CF
:101D900040F008000C49091D08601948007850B946
:101DA0000C48007838B90848001D006840F400402D
:101DB0000549091D086010BD140C0140A400002055
:101DC000AC000020AE00002010140140A50000204F
:101DD000A6000020A7000020B0000020B2000020D4
:101DE000420000209C000020A20000209D00002056
:101DF000A30000209E0000209F000020A0000020E3
:101E0000A10000200220044908700448006840F442
:101E1000885002490860704735010020202C01409D
:101E20000120044908700448006840F0110002498C
:101E30000860704735010020202C014000BFFEE7FC
:101E400001460148405C70478400002000B5002036
:101E5000FFF7F6FF00BD00B50346184600F002F894
:101E600000BD000004494978034A91701146097881
:101E700051701146087070478400002010B5FFF7BC
:101E8000C1FF00F03DF90021084601F0DDFA002114
:101E9000084601F0C1FA002001F09EFA05484069A9
:101EA00040F040000349486140F6B83004F07AFB46
:101EB00010BD00000010014030B504460D4601F091
:101EC000BFF92946204601F0BFFA30BD704710B572
:101ED0004FF4407005F0CCF9002211461C2005F0AB
:101EE00075F900221146362005F070F9002205210F
:101EF000372005F06BF900220221062005F066F973
:101F000000220221072005F061F9002202210820A9
:101F100005F05CF900220221092005F057F90022A2
:101F200002210A2005F052F900220221172005F0B3
:101F30004DF900220221282005F048F90022042151
:101F4000032005F043F900220421252005F03EF985
:101F500000221146262005F039F9002211462720DB
:101F600005F034F9002206210E2005F02FF9002299
:101F70000721112005F02AF910BD70470B490968A7
:101F80000B4A1268914210D008490A6809498A42EE
:101F900003D3A1F23311054A116004490968087896
:101FA00002490968491C014A116070471800002065
:101FB00014000020FA03002010B500243E484068B9
:101FC00020F440303C4948600846406840F44030C6
:101FD00048600846C06A20F08040C86208464068F1
:101FE0003649084034494860084640683449084347
:101FF000314948600846006840F08070086004E09D
:10200000641C3048844200D905E02B48006800F089
:1020100000700028F4D000BF2B48006840F48030E6
:102020002949086000BF2848406800F48030002833
:10203000F9D02548006840F400302349086000BF0B
:102040002148406800F400300028F9D01A48406860
:1020500020F00300184948600846406840F002003C
:102060004860002404E0641C1648844200D905E05E
:102070001148406800F008000028F4D000BF0E4866
:10208000406840F480600C494860012005F0DCFAAB
:102090000948406940F001000749486108468069E5
:1020A00046F67D210843044988610846C06907490E
:1020B00008430149C86110BD00100240FFFFC3B7CB
:1020C0000000340840420F000070004035800620B8
:1020D00010B54FF4003004F04FFC70B14FF40030F5
:1020E00004F044FCFFF7B2FE052803D0FFF7AEFE74
:1020F0000A2802D101200149087010BDE00000202B
:102100000220044908700448006840F011000249A8
:102110000860704734010020202C01400120044950
:1021200008700448006840F488500249086070470D
:1021300034010020202C014000B5B9484089B0F599
:10214000FA7F05DD0020B649087248814880486062
:10215000B448006800F48070002834D0B048007A99
:1021600058B1AF484089AE494988401A012803DD7B
:102170000020AB494881488051E1A94840894B285B
:102180000BDDA7484089642807DA0120A4490872BA
:10219000002048814880087041E1A14840892F28EB
:1021A0000CDD9F484089352808DA01209C490872D7
:1021B0000020488148800120087030E1984840891B
:1021C000974948802BE19648007A012825D1944808
:1021D00040892A280CDD92484089302808DA0220FC
:1021E0008F4908720020486048814880487216E193
:1021F0008B4840892F280CDD89484089352808DA2A
:10220000022087490872002048604881488048724F
:1022100005E100208249087201E18148007A022824
:102220007ED17F4840890E2812DD7D4840891328E1
:102230000EDA7B48406840F0010079494860084662
:10224000407A401C4872084640684000486061E09F
:1022500073484089032812DD7148408907280EDA47
:102260006F48406820F001006D4948600846407A98
:10227000401C487208464068400048604AE0684890
:102280004089072812DD664840890D280EDA644827
:10229000406840F00100624948600846407A401CAE
:1022A0004872084640684000486033E05C48408916
:1022B0001B2812DD5A48408921280EDA5848406808
:1022C00020F00100564948600846407A401C487298
:1022D00008464068400048601CE0514840892A2870
:1022E0000CDD4F484089302808DA02204C4908723A
:1022F000002048604881488048720BE04848408987
:1023000047494988401A012804DD00204449488192
:10231000488008724248407A072858D1404800E077
:1023200072E0007878B300203D4948720872084690
:102330004068B42806D13C48006840F480503A49CF
:10234000086041E036484068B82806D13648006841
:1023500040F400503449086036E031484068B02805
:1023600006D13148006840F000702F4908602BE02A
:102370002B484068B22807D12B48006840F0004045
:102380002949086020E022E025484068F02806D16D
:102390002548006840F480402349086014E0204844
:1023A0004068AA2806D1204800684FF0FF301E4937
:1023B000086009E01A484068AA2805D11A48006850
:1023C0004FF0FF3018490860002015494860144854
:1023D000407A1F2813DB1248406800F47F00B0F5F4
:1023E0007F0F07D10E49486800F020FE00200C49FD
:1023F0004872087200200A4948604872087208480A
:102400004089074948800AE00548408904494988CD
:10241000401A012803DD002001494881488000BDA1
:10242000A005002008180140CC00002000B5B948E4
:102430004089B0F5FA7F05DD0020B6490872488171
:1024400048804860B448006800F00800002834D094
:10245000B048007A58B1AF484089AE494988401A1F
:10246000012803DD0020AB494881488051E1A9489B
:1024700040894B280BDDA7484089642807DA0120F2
:10248000A4490872002048814880087041E1A148B1
:1024900040892F280CDD9F484089352808DA012023
:1024A0009C4908720020488148800120087030E172
:1024B00098484089974948802BE19648007A01283E
:1024C00025D1944840892A280CDD9248408930283B
:1024D00008DA02208F49087200204860488148804D
:1024E000487216E18B4840892F280CDD89484089C5
:1024F000352808DA022087490872002048604881A0
:102500004880487205E100208249087201E1814853
:10251000007A02287ED17F4840890E2812DD7D484E
:10252000408913280EDA7B48406840F00100794961
:1025300048600846407A401C48720846406840009F
:10254000486061E073484089032812DD7148408982
:1025500007280EDA6F48406820F001006D49486096
:102560000846407A401C487208464068400048606F
:102570004AE068484089072812DD664840890D28EE
:102580000EDA6448406840F001006249486008463D
:10259000407A401C4872084640684000486033E07A
:1025A0005C4840891B2812DD5A48408921280EDAF0
:1025B0005848406820F00100564948600846407A73
:1025C000401C487208464068400048601CE0514882
:1025D00040892A280CDD4F484089302808DA02203B
:1025E0004C490872002048604881488048720BE0DE
:1025F0004848408947494988401A012804DD00209D
:1026000044494881488008724248407A072858D196
:10261000404800E072E0007878B300203D494872FD
:10262000087208464068B42806D13C48006840F06B
:1026300020003A49086041E036484068B82806D191
:102640003648006840F010003449086036E03148F0
:102650004068B02806D13148006840F480002F4916
:1026600008602BE02B484068B22807D12B4800684F
:1026700040F080502949086020E022E02548406869
:10268000F02806D12548006840F48060234908609E
:1026900014E020484068AA2806D1204800684FF07E
:1026A000FF301E49086009E01A484068AA2805D191
:1026B0001A4800684FF0FF3018490860002015499B
:1026C00048601448407A1F2813DB1248406800F421
:1026D0007F00B0F57F0F07D10E49486800F0A6FCD7
:1026E00000200C494872087200200A49486048726C
:1026F000087208484089074948800AE0054840892F
:1027000004494988401A012803DD00200149488115
:10271000488000BDAC050020080C0140CC00002022
:1027200000B5B9484089B0F5FA7F05DD0020B6490B
:102730000872488148804860B448006800F0800012
:10274000002834D0B048007A58B1AF484089AE492B
:102750004988401A012803DD0020AB4948814880A0
:1027600051E1A94840894B280BDDA74840896428DE
:1027700007DA0120A44908720020488148800870C7
:1027800041E1A14840892F280CDD9F484089352828
:1027900008DA01209C490872002048814880012005
:1027A000087030E198484089974948802BE1964865
:1027B000007A012825D1944840892A280CDD9248C6
:1027C0004089302808DA02208F49087200204860CA
:1027D00048814880487216E18B4840892F280CDDDB
:1027E00089484089352808DA022087490872002084
:1027F000486048814880487205E10020824908729B
:1028000001E18148007A02287ED17F4840890E2864
:1028100012DD7D48408913280EDA7B48406840F07D
:102820000100794948600846407A401C48720846D1
:1028300040684000486061E073484089032812DD29
:102840007148408907280EDA6F48406820F001007F
:102850006D4948600846407A401C48720846406806
:10286000400048604AE068484089072812DD664811
:1028700040890D280EDA6448406840F00100624942
:1028800048600846407A401C48720846406840004C
:10289000486033E05C4840891B2812DD5A48408973
:1028A00021280EDA5848406820F001005649486057
:1028B0000846407A401C487208464068400048601C
:1028C0001CE0514840892A280CDD4F4840893028B7
:1028D00008DA02204C49087200204860488148808C
:1028E00048720BE04848408947494988401A012806
:1028F00004DD002044494881488008724248407AFB
:10290000072858D1404800E072E0007878B30020F2
:102910003D494872087208464068B42806D13C48D0
:10292000006840F008003A49086041E036484068D5
:10293000B82806D13648006840F0040034490860E1
:1029400036E031484068B02806D13148006840F48C
:1029500000102F4908602BE02B484068B22807D1AF
:102960002B48006840F000602949086020E022E020
:1029700025484068F02806D12548006840F40070DA
:102980002349086014E020484068AA2806D120485E
:1029900000684FF0FF301E49086009E01A4840689F
:1029A000AA2805D11A4800684FF0FF30184908607E
:1029B0000020154948601448407A1F2813DB12484C
:1029C000406800F47F00B0F57F0F07D10E494868DA
:1029D00000F02CFB00200C494872087200200A49C4
:1029E00048604872087208484089074948800AE0F0
:1029F0000548408904494988401A012803DD002020
:102A000001494881488000BDB805002008140140F4
:102A1000CC0000200148006870470000C40000207E
:102A20000148006870470000CC00002000B5B9489C
:102A30004089B0F5FA7F05DD0020B649087248816B
:102A400048804860B448006800F01000002834D086
:102A5000B048007A58B1AF484089AE494988401A19
:102A6000012803DD0020AB494881488051E1A94895
:102A700040894B280BDDA7484089642807DA0120EC
:102A8000A4490872002048814880087041E1A148AB
:102A900040892F280CDD9F484089352808DA01201D
:102AA0009C4908720020488148800120087030E16C
:102AB00098484089974948802BE19648007A012838
:102AC00025D1944840892A280CDD92484089302835
:102AD00008DA02208F490872002048604881488047
:102AE000487216E18B4840892F280CDD89484089BF
:102AF000352808DA0220874908720020486048819A
:102B00004880487205E100208249087201E181484D
:102B1000007A02287ED17F4840890E2812DD7D4848
:102B2000408913280EDA7B48406840F0010079495B
:102B300048600846407A401C487208464068400099
:102B4000486061E073484089032812DD714840897C
:102B500007280EDA6F48406820F001006D49486090
:102B60000846407A401C4872084640684000486069
:102B70004AE068484089072812DD664840890D28E8
:102B80000EDA6448406840F0010062494860084637
:102B9000407A401C4872084640684000486033E074
:102BA0005C4840891B2812DD5A48408921280EDAEA
:102BB0005848406820F00100564948600846407A6D
:102BC000401C487208464068400048601CE051487C
:102BD00040892A280CDD4F484089302808DA022035
:102BE0004C490872002048604881488048720BE0D8
:102BF0004848408947494988401A012804DD002097
:102C000044494881488008724248407A072858D190
:102C1000404800E072E0007878B300203D494872F7
:102C2000087208464068B42806D13C48006840F065
:102C300080003A49086041E036484068B82806D12B
:102C40003648006840F040003449086036E03148BA
:102C50004068B02806D13148006840F400002F4990
:102C600008602BE02B484068B22807D12B48006849
:102C700040F000502949086020E022E025484068E3
:102C8000F02806D12548006840F400602349086018
:102C900014E020484068AA2806D1204800684FF078
:102CA000FF301E49086009E01A484068AA2805D18B
:102CB0001A4800684FF0FF30184908600020154995
:102CC00048601448407A1F2813DB1248406800F41B
:102CD0007F00B0F57F0F07D10E49486800F0A6F9D4
:102CE00000200C494872087200200A494860487266
:102CF000087208484089074948800AE00548408929
:102D000004494988401A012803DD0020014948810F
:102D1000488000BDD0050020080C0140CC000020F8
:102D200000B5B9484089B0F5FA7F05DD0020B64905
:102D30000872488148804860B448006800F020006C
:102D4000002834D0B048007A58B1AF484089AE4925
:102D50004988401A012803DD0020AB49488148809A
:102D600051E1A94840894B280BDDA74840896428D8
:102D700007DA0120A44908720020488148800870C1
:102D800041E1A14840892F280CDD9F484089352822
:102D900008DA01209C4908720020488148800120FF
:102DA000087030E198484089974948802BE196485F
:102DB000007A012825D1944840892A280CDD9248C0
:102DC0004089302808DA02208F49087200204860C4
:102DD00048814880487216E18B4840892F280CDDD5
:102DE00089484089352808DA02208749087200207E
:102DF000486048814880487205E100208249087295
:102E000001E18148007A02287ED17F4840890E285E
:102E100012DD7D48408913280EDA7B48406840F077
:102E20000100794948600846407A401C48720846CB
:102E300040684000486061E073484089032812DD23
:102E40007148408907280EDA6F48406820F0010079
:102E50006D4948600846407A401C48720846406800
:102E6000400048604AE068484089072812DD66480B
:102E700040890D280EDA6448406840F0010062493C
:102E800048600846407A401C487208464068400046
:102E9000486033E05C4840891B2812DD5A4840896D
:102EA00021280EDA5848406820F001005649486051
:102EB0000846407A401C4872084640684000486016
:102EC0001CE0514840892A280CDD4F4840893028B1
:102ED00008DA02204C490872002048604881488086
:102EE00048720BE04848408947494988401A012800
:102EF00004DD002044494881488008724248407AF5
:102F0000072858D1404800E072E0007878B30020EC
:102F10003D494872087208464068B42806D13C48CA
:102F2000006840F002003A49086041E036484068D5
:102F3000B82806D13648006840F0010034490860DE
:102F400036E031484068B02806D13148006840F486
:102F500080102F4908602BE02B484068B22807D129
:102F60002B48006840F080602949086020E022E09A
:102F700025484068F02806D12548006840F4807054
:102F80002349086014E020484068AA2806D1204858
:102F900000684FF0FF301E49086009E01A48406899
:102FA000AA2805D11A4800684FF0FF301849086078
:102FB0000020154948601448407A1F2813DB124846
:102FC000406800F47F00B0F57F0F07D10E494868D4
:102FD00000F02CF800200C494872087200200A49C1
:102FE00048604872087208484089074948800AE0EA
:102FF0000548408904494988401A012803DD00201A
:1030000001494881488000BDC4050020080C0140EA
:10301000CC00002000B5002000F008F800BD000042
:103020000020014908607047CC0000200149086079
:1030300070470000C400002023484089401C2249FA
:103040004881084640894FF6FD71884202DD0846F6
:103050001D4948811D484089401C1C49488108463B
:1030600040894FF6FD71884202DD084617494881C4
:1030700017484089401C16494881084640894FF648
:10308000FD71884202DD0846114948811148408996
:10309000401C10494881084640894FF6FD7188421E
:1030A00002DD08460B4948810B484089401C0A490B
:1030B0004881084640894FF6FD71884202DD084686
:1030C0000549488170470000AC050020B805002084
:1030D000C4050020D0050020A005002010B504463E
:1030E000FFF798FCA04206D1FFF794FF0220FDF7FE
:1030F00077F9012010BD0020FCE7000000201A49EC
:1031000008600846006840F018000860084600683B
:1031100040F0020008600846006840F001000860C6
:103120000846006820F4806008600846006820F4C3
:10313000004008600846006820F0800008600846EB
:10314000006840F4007008600846006840F4807031
:1031500008600846006840F00400086008460068FF
:1031600040F0400008607047003C004002460021EB
:1031700005E0481CC1B2C82901DD002070470E4897
:10318000006800F002000028F3D00B48001D026028
:10319000002105E0481CC1B2C82901DD0020EDE78F
:1031A0000548006800F001000028F3D00248001D27
:1031B0000068C0B2E2E70000083C00407047000031
:1031C000012806D10749096841F48051054A116078
:1031D00007E00449091D096841F48051014A121DA4
:1031E00011607047100C0140012806D10749096899
:1031F00041F40051054A116007E00449091F0968BC
:1032000041F40051014A121F11607047140C014033
:1032100001200149087070477D01002001490860C4
:1032200070470000780100200149086070470000E5
:103230007401002000B5FEF763FFFEF7E3FD00BD5B
:1032400000B5FEF76BFFFEF7EBFD00BD70B5DDE9E5
:103250000445064E3070064E3170064E3270064EF2
:103260003370064E3470064E357070BD96000020E7
:103270009700002098000020990000209A0000206C
:103280009B0000200149087070470000A200002048
:1032900001490870704700009C0000200149087037
:1032A00070470000A300002001490870704700002B
:1032B0009D0000200149087070470000A400002014
:1032C00001490870704700009E0000200149087005
:1032D00070470000A50000200149087070470000F9
:1032E0009F0000200149087070470000A6000020E0
:1032F0000149087070470000A000002001490870D3
:1033000070470000A70000200149087070470000C6
:10331000A1000020F0B505460C46DDE9056728460A
:10332000FFF7B0FF2046FFF7B9FF1046FFF7C2FFD7
:103330001846FFF7CBFF3046FFF7D4FF3846FFF7BC
:10334000DDFFF0BDF0B505460C46DDE90567284612
:10335000FFF79EFF2046FFF7A7FF1046FFF7B0FFDD
:103360001846FFF7B9FF3046FFF7C2FF3846FFF7B0
:10337000CBFFF0BDF0B5DDE905450C4E365C0C4FDA
:103380003E700A4E765C0B4F3E70084EB65C0A4F9C
:103390003E70064EF65C094F3E70044E365D084F97
:1033A0003E70024E765D074F3E70F0BD147B000804
:1033B000960000209700002098000020990000202F
:1033C0009A0000209B000020642800DD6420014951
:1033D00008807047380100200149086070470000EC
:1033E0003C080040012806D10649096841F4807173
:1033F000044A116005E00349096821F48071014A1B
:103400001160704720080040642800DD64200149F5
:10341000088070473A01002000BF014A11607047E0
:103420003834014038B50446009401220249684608
:1034300002F02EFD38BD000000FC1F00014908709D
:10344000704700007C01002000B503460A4618467C
:10345000FFF7BAFF1046FFF7D7FF00BD014908701C
:10346000704700008C0100208A49096801F400417E
:1034700001B970470021884A1160884A1160884A62
:103480001170884A11701E2876D2DFE800F0F70F1D
:10349000161E252D353D454D555D656D767E868E16
:1034A000969EA6AEB6BEC6CED6DEE6EF00217A4A1E
:1034B00011607D49794A1160E1E07B490E31764A1D
:1034C00011607A49754A1160D9E07949724A1160F0
:1034D0007849724A1160D2E077496F4A11604EF61E
:1034E000BD416E4A1160CAE074496B4A11604AF2EC
:1034F000A2116A4A1160C2E07149674A116049F637
:10350000BD41664A1160BAE06E49634A116049F6EE
:10351000BD41624A1160B2E06B495F4A116049F6F1
:103520001B315E4A1160AAE068495B4A116049F6A6
:1035300079115A4A1160A2E06549574A116049F26F
:103540004F11564A11609AE06249534A116048F699
:10355000AD71524A116092E05F494F4A116048F6DE
:103560000B614E4A11608AE05C494B4A116047F694
:1035700059714A4A116082E080E05949464A116017
:1035800047F61541454A116079E05649424A1160B3
:1035900047F23071414A116071E053493E4A11606F
:1035A00047F2A8013D4A116069E050493A4A11606A
:1035B00046F60671394A116061E04D49364A11609C
:1035C00046F60671354A116059E04A49324A11609F
:1035D00046F60671314A116051E047492E4A1160A2
:1035E00046F606712D4A116049E044492A4A1160A5
:1035F00046F66451294A116041E04149264A11606A
:1036000046F62021254A116039E03E49224A1160E0
:1036100046F29831214A116031E03B491E4A11605F
:1036200045F6B2611D4A116029E038491A4A116015
:1036300045F61051194A116021E03549164A1160CA
:1036400045F2A211154A116019E03249124A11607F
:1036500044F65F61114A116011E02F490E4A116072
:1036600044F61B310D4A116009E0FFE72B490A4A75
:10367000116044F29341094A116000E000BF00BFAD
:1036800004490C31096841F40041024A0C321160CE
:1036900000BFEEE608180140B8000020BC00002082
:1036A000B4000020B5000020B24E0100F13201004C
:1036B000C081020025290100F0AA0300C097040080
:1036C0007039050040D6050010730600300E070063
:1036D000B0A7070010390800D0C80800F05609004C
:1036E00060D6090080520A00C0C90A00703A0B0077
:1036F00080A90B0090180C00A0870C00B0F60C00FD
:1037000020640D0050CE0D00F0310E00B0900E0080
:10371000D0ED0E00803F0F00F08D0F0010D90F008C
:103720008B480088142823DD8A48008814281BDA77
:1037300087480088C0EBC0000A2190FBF1F0854962
:103740000988884205DD84480088401C8249088039
:1037500002E00020804908807F480088C8280ADDF0
:10376000C8207D49088006E000207B49088002E0EF
:1037700000207949088079480088142823DD78489A
:10378000008814281BDA75480088C0EBC0000A21A5
:1037900090FBF1F072490988884205DD7148008884
:1037A000401C7049088002E000206E4908806D4886
:1037B0000088C8280ADDC8206A49088006E0002081
:1037C0006849088002E00020664908806048008857
:1037D000012835DD5F480088462802DD46205D4926
:1037E00008805B4800885B490988401A5E49086088
:1037F000084600680A2801DD0A2008605A48006867
:1038000010F10A0F03DA6FF00900574908605748B2
:10381000008855490968084400B2544908800846A0
:10382000B0F90000002802DA002008800BE04F48C1
:10383000B0F90000632806DD64204C49088002E0EE
:1038400000204A49088045480088012835DD444861
:103850000088462802DD4620414908803F4800880C
:103860003F490988401A42490860084600680A280A
:1038700001DD0A2008603E48006810F10A0F03DAF3
:103880006FF009003A4908603A48008838490968E9
:10389000084400B2374908800846B0F90000002803
:1038A00002DA002008800BE03248B0F900006328FB
:1038B00006DD64202F49088002E000202D490880A1
:1038C000002024490880264908802B4800780128D8
:1038D00008D10020294908602448008880B2091DC9
:1038E000086012E024480078022809D1002023490A
:1038F000091D08601D48008880B2091F086004E0A7
:1039000000201E490860091D08601D480078012834
:1039100009D100201949083108601648008880B292
:10392000091D086013E016480078022809D100201C
:1039300012490C3108600F48008880B2091F0860E6
:1039400005E000200D4908310860091D0860704736
:10395000380100203C010020420100203A010020F3
:103960003E010020400100206001002046010020AF
:103970005C0100204401002035010020342C01406E
:103980003401002070B505460E4600242EB1681C97
:10399000C4B20E2C06DD012404E0681EC4B2012C62
:1039A00000DA0E241C20FFF75FFD0620FDF7DCF98E
:1039B00001210BA0FDF78BF922460BA10D4803F066
:1039C000C2FF0C4803F088FF0BA003F085FFFDF752
:1039D000A8F94FF47A7002F0E5FD204670BD0000B2
:1039E0004050415353000000537465703A202564E1
:1039F0000A000000E91500200D00000010B508487D
:103A00000078401C0649087008460078132803DD3A
:103A100000200870FCF7E6FCFFF782FE10BD0000F6
:103A20005B00002010B51048006840F470000E499B
:103A300008600E48006840F001000C490860002052
:103A40004860C8620846006809490840074908609C
:103A50004FF41F0088600846006820F4802008604A
:103A600003F0F2FE10BD000088ED00E000100240FF
:103A7000FFFFF6FE10B5FEF79FFAFDF7A9FB00F079
:103A800073F801F021FF01F04BFF01F06FFF01F02F
:103A90009FFF01F0ABFF01F0BDFF01F0F7FF02F067
:103AA0005BF802F0ABF8FDF753FBFCF79BFBFDF76F
:103AB000D3F8FFF723FBFEF70AFA10BD2DE9F04318
:103AC000002300240025994600260027984600BFC1
:103AD00013E01E48C08A06441C48408807441B481F
:103AE000408A04441948808A05441848008B804461
:103AF000642002F057FD581CC3B20A2BE9DB0A20F0
:103B000094FBF0F000B2124908800A2095FBF0F017
:103B100000B2104908800A2099FBF0F000B20E496B
:103B200008800A2096FBF0F000B20C4908800A20B9
:103B300097FBF0F000B20A4908800A2098FBF0F0E9
:103B400000B208490880BDE8F0830000300500207D
:103B50003000002032000020340000203600002019
:103B6000380000203A00002000204FF0E02188615A
:103B7000024848610720086170470000C0C62D0058
:103B800010B50121880703F067FE18B101218807ED
:103B900003F05EFE0221480703F05EFE00287DD0A0
:103BA0000221480703F054FEA348006840F01000CB
:103BB000A1490860A148007800283FD000209F4913
:103BC00008709F48007830B39E4880899E49898854
:103BD000401A00B29D4988809A48008A9A494989CA
:103BE000401A9B490988401A00B298494881954873
:103BF000408995490988401A96490988401A00B2B7
:103C0000924908808F48C0898F49C988401A00B2FC
:103C10008E49C88012E08B4840898B494988401AF8
:103C200000B28A4948808748C08987490989401A73
:103C300089490988401A00B2844908818148C088AE
:103C400086490988401A00B2854908807D48408B22
:103C500082494988401A00B28149488079480089E0
:103C60007E498988401A00B27D4988807548808BDA
:103C70007A49C988401A00B27949C88079480078E1
:103C8000401C784908700846007806284ADD002064
:103C90000870012069490870694800E042E0007836
:103CA000C0F101006649087008460078F0B16E481E
:103CB000006840F480706C4908606C48006840F40B
:103CC00000706A4908605C48006840F001005A4989
:103CD0000860081F006840F00200091F086064487F
:103CE000006940F40050624908611BE052480068D6
:103CF00040F00200504908605D48406940F40050BF
:103D00005B4948615948001F006840F400705749FA
:103D1000091F08604848001F006840F0010046493C
:103D2000091F08600421080703F096FD48B104212B
:103D3000080703F08DFD4F48006840F480004D49AE
:103D400008600821C80603F087FD002863D0082119
:103D5000C80603F07DFD4548001F006840F4007070
:103D60004249091F08603448001F006840F0010004
:103D70003149091F08600846006840F002000860E9
:103D80003B48006940F40050394908612A48001F47
:103D9000006840F010002849091F08603248001FE1
:103DA000006840F480703049091F0860234800789B
:103DB000E8B12348007888B12248808900B22249BE
:103DC00088802048008A00B248811E48408900B29D
:103DD00008801C48C08900B2C88008E019484089A2
:103DE00000B2194948801748C08900B208811548B7
:103DF000C08800B2194908801248408B00B2488040
:103E00001048008900B288800E48808B00B2C880BC
:103E10000120194908701021880603F01DFD48B1E2
:103E20001021880603F014FD1248006840F4800059
:103E30001049086010BD0000141801406300002004
:103E400064000020300500205A0500204E050020A7
:103E50006401002066010020680100204E0000205F
:103E6000460000206200002014080140140C0140AC
:103E700000100140082401406800002010B5012115
:103E80002B4803F0E9FC002851D00121284803F019
:103E9000DFFC28480088401C264908802648008806
:103EA000401C25490880FFF7C7F824480068401CDB
:103EB000224908600846006810F1030F01D900206C
:103EC00008601F480078401C1D49087008460078AB
:103ED000642801DD00200870FDF77CFC194800789B
:103EE000401C1849087008460078632801DD00204E
:103EF000087015480078401C13490870084600787F
:103F0000642814DB0020087010480088401C0F490A
:103F100008800846008841F27071884207DD002061
:103F20000A4908800A480088401C0949088010BDD9
:103F30000010004056000020580000203C000020E7
:103F40008B0000205C0000205D0000205E0000204F
:103F50004000002010B501210A4803F07DFC80B12B
:103F60000121084803F074FC07480088401C0649FA
:103F7000088008460088342803DD00200880FCF70C
:103F8000C9F910BD00140040600000208AB0002074
:103F900009904FF4FA7A012683460890002500BF65
:103FA00080460690002400270590049081460390E7
:103FB0000620FCF7D9FE1C20FFF756FA4FF4487094
:103FC00002F0F0FA0121FAA0FCF781FE0121FCA029
:103FD000FCF77DFE0121FDA0FCF779FE00BFFDF797
:103FE000D1FB00F002000028F9D14FF4FA6002F092
:103FF000D9FA10E0FDF7C6FB022809D11C20FFF713
:1040000033FA012600BFFDF7BDFB0228FBD003E019
:10401000642002F0C7FAEDE700BF0120FDF72CFA9B
:10402000ED4909884FF4A57201FB02F0C11700EBBE
:104030001151091307910799DC2902DB0798F02831
:1040400010DDE6A1EA48079A03F07DFCE84803F09A
:1040500043FCE8A003F040FC03E04FF4FA6002F0F8
:10406000A1FAFAE7FDF742F90690FDF707FF4FF4D2
:104070007A7002F097FAD8480088FDF7B1F90690F7
:104080000698B42802D80698142810D2DAA1D84885
:10409000069A03F058FCD64803F01EFCD5A003F0A6
:1040A0001BFC03E04FF4FA6002F07CFAFAE7002010
:1040B000FDF73EFB40F6B83002F074FAFDF7C8F9A0
:1040C00001F070FE0246D0A10290C94803F03BFC0B
:1040D000C74803F001FCC7A003F0FEFB01F062FE3D
:1040E00041F21551884225D0CBA1C14803F02BFCE9
:1040F000BF4803F0F1FBBFA003F0EEFB18E04FF464
:104100007A7002F04FFA01F04DFE41F215518842EB
:1041100000D00EE001F046FE0246BBA10290B4487A
:1041200003F011FCB24803F0D7FBB2A003F0D4FBBC
:10413000E5E700BF0121BEA0FCF7C9FD1C20FFF789
:1041400093F900BFFDF71EFB00F002000028F9D133
:1041500001F0A0BB002468E0012000900346024665
:1041600001460190FFF7EEF84FF000094CE06420A3
:1041700002F018FA0420FDF7F7FA10B144F0010438
:1041800001E044F002040120FDF7EEFA10B144F022
:10419000040401E044F008040220FDF7E5FA10B140
:1041A00044F0100401E044F0200401200090034694
:1041B000024601460190FFF7C5F8CDF800904B4646
:1041C0004A4649464846CDF80490FFF7D3F83F2CBD
:1041D00016D101213046FFF7D5FB0646002000909E
:1041E00003460122014601901046FFF7ABF8642018
:1041F00000900346024601460190FFF727F806E0CB
:1042000009F1010000F0FF09B9F1640FAFDB00BF55
:10421000012E00D00BE08848FEF760FF28B1002196
:104220003046FFF7AFFB064601E0012E94D000BFF9
:1042300000BFFDF7A7FA00F002000028F9D1002422
:1042400009904FF0320B12E14FF4FA7002F0AAF924
:104250007A48B0F90000B0F57A7F02DD44F001043D
:1042600007E07648B0F90000B0F5967F01DA44F037
:1042700002047248B0F90200B0F57A7F02DD44F022
:10428000040407E06D48B0F90200B0F5967F01DA4A
:1042900044F008046948B0F90400B0F57A7F02DD03
:1042A00044F0100407E06548B0F90400B0F5967FCB
:1042B00001DA44F020046148B0F90600B0F57A7FD5
:1042C00002DD44F0400407E05C48B0F90600B0F5B8
:1042D000967F01DA44F080045848B0F90800B0F540
:1042E0007A7F02DD44F4807407E05448B0F9080096
:1042F000B0F5967F01DA44F400745048B0F90A0032
:10430000B0F57A7F02DD44F4806407E04B48B0F9F1
:104310000A00B0F5967F01DA44F400644648FEF7DF
:10432000DDFE28B100213046FFF72CFB0646A1E058
:1043300040F6FF70844205D101213046FFF722FB91
:10434000064697E00220FDF70FFA78B304F0030069
:10435000032803D001213AA0FCF7B9FC04F00C00BB
:104360000C2803D0012138A0FCF7B1FC04F0300088
:10437000302803D0012136A0FCF7A9FC04F0C000CE
:10438000C02803D0012134A0FCF7A1FC04F4407044
:10439000B0F5407F03D0012131A0FCF798FC04F474
:1043A0004060B0F5406F62D001215DE05FE0000049
:1043B00040546573742053746172742100000000CE
:1043C0004056657273696F6E000000002332303111
:1043D000393039313200000044000020234261733B
:1043E000654C696E654661696C3A25640A00000097
:1043F000E91500200D000000234375724661696CC9
:10440000213A25640A000000666C61736820494403
:104410003A25780A0000000053504920666C617309
:10442000682072656164204552522121000000001D
:1044300040504153530000001EE0FF004E05002095
:10444000234C57616C6C2000234C4F4253200000DA
:1044500023464F425320000023524F425320000076
:10446000235257616C6C2000FDA0FCF730FC022E3B
:104470003FF4EAAE00BF0024002009906BE0642006
:1044800002F090F800200990FCF752FF00F01000B5
:1044900010B144F0010401E044F00204FCF748FFCD
:1044A00000F0010010B144F0040401E044F00804FD
:1044B000FCF73EFF00F0020010B144F0100401E0F0
:1044C00044F02004FCF734FF00F0200010B144F069
:1044D000400401E044F080040BF1010000F0FF0B08
:1044E000BBF1320F01DD4FF0000BDF48FEF7F6FDA8
:1044F00028B100213046FFF745FA06462DE0FF2C93
:1045000005D101213046FFF73DFA064625E002209D
:10451000FDF72AF9F8B104F00300032803D00121C4
:10452000D2A0FCF7D4FB04F00C000C2803D001212E
:10453000D1A0FCF7CCFB04F03000302803D00121DF
:10454000D0A0FCF7C4FB04F0C000C02803D00121B8
:10455000CFA0FCF7BCFB032E91D000BF00240020AD
:104560000990ECE000200990CC48B0F90000462802
:104570000ADA322002F016F8C848B0F900004628DE
:1045800013DA44F0010410E0C448B0F90000B0F5BB
:104590007A7F0ADD322002F005F8C048B0F9000049
:1045A000B0F57A7F01DD44F00204BC48B0F90200A6
:1045B00046280ADA322001F0F5FFB848B0F90200C7
:1045C000462813DA44F0040410E0B448B0F90200BD
:1045D000B0F57A7F0ADD322001F0E4FFAF48B0F990
:1045E0000200B0F57A7F01DD44F00804AB48B0F971
:1045F000040046280ADA322001F0D4FFA748B0F9B7
:104600000400462813DA44F0100410E0A348B0F97F
:104610000400B0F57A7F0ADD322001F0C3FF9F4825
:10462000B0F90400B0F57A7F01DD44F020049B4826
:10463000B0F9040046280ADA322001F0B3FF9748A7
:10464000B0F90400462813DA44F0400410E093481F
:10465000B0F90400B0F57A7F0ADD322001F0A2FF44
:104660008E48B0F90400B0F57A7F01DD44F0800493
:104670008B48006800F4804010B944F4807401E075
:1046800044F400748648006800F0800010B944F4D7
:10469000806401E044F400640BF1010000F0FF0BC2
:1046A000BBF1320F01DD4FF0000B6F48FEF716FD36
:1046B00028B100213046FFF765F9064642E040F692
:1046C000FF70844205D101213046FFF75BF90646B1
:1046D00038E00220FDF748F888B304F0030003280F
:1046E00003D001216FA0FCF7F2FA04F00C000C28B3
:1046F00003D001216EA0FCF7EAFA04F03000302864
:1047000003D001216DA0FCF7E2FA04F0C000C0283C
:1047100003D001216CA0FCF7DAFA04F44070B0F584
:10472000407F03D001216BA0FCF7D1FA04F4406074
:10473000B0F5406F03D0012168A0FCF7C8FA042E41
:104740003FF410AF00BF002400200990EBE04FF4CD
:10475000FA7001F027FFFEF763F90490049808B19E
:10476000FEF75EFC00200990049800F0030030B1D1
:1047700044F001040998401C80B2099001E044F023
:104780000204049800F00C0030B144F004040998CD
:104790000A3080B2099001E044F00804049800F067
:1047A000300030B144F010040998643080B20990B0
:1047B00001E044F02004049800F0C00038B144F057
:1047C0004004099800F57A7080B2099001E044F045
:1047D0008004049800F4405030B144F48074099887
:1047E000801C80B2099001E044F400741E48FEF77A
:1047F00075FC28B100213046FFF7C4F8064695E065
:1048000040F2FF30844205D101213046FFF7BAF86B
:1048100006468BE00220FCF7A7FF00B304F003007C
:10482000032803D001212FA0FCF751FA04F00C005B
:104830000C2803D001212EA0FCF749FA04F0300027
:10484000302803D001212DA0FCF741FA04F0C0006C
:10485000C02803D001212CA0FCF739FA5AE062E00D
:10486000235857616C6C20001EE0FF00234C42551A
:104870004D5045520000000023464C42554D5045D6
:104880005200000023465242554D50455220000030
:10489000235242554D504552200000004600002052
:1048A000080C014023464C5F434C4946460000003B
:1048B0002346525F434C49464600000023424C5F6A
:1048C000434C4946460000002342525F434C494650
:1048D0004600000023525F44524F5000234C5F4477
:1048E000524F5000235252434F4E202000000000F0
:1048F00023465252434F4E200000000023464C52A4
:10490000434F4E2000000000234C52434F4E2020C6
:104910000000000004F44070B0F5407F03D0012196
:10492000F8A0FCF7D4F9052E3FF411AF00BF002426
:104930003CE0642001F036FEF548FEF7CFFB28B1DD
:1049400000213046FFF71EF8064631E0F1480068C6
:1049500000F4806010B944F0010401E044F0020466
:10496000ED48806800F4007010B944F0040401E0E0
:1049700044F008040F2C05D101213046FFF702F85E
:10498000064615E00220FCF7EFFE78B104F00300C4
:10499000032803D00121E1A0FCF799F904F00C00F1
:1049A0000C2803D00121DFA0FCF791F9062EC0D01E
:1049B00000BF0024F4E0FEF743FC00212E20FEF7A8
:1049C00043FD42F2107001F0EDFD4FF0280A002582
:1049D0000FE0322001F0E6FDD548408A0544CC487E
:1049E000FEF77CFB28B100213046FEF7CBFF0646E0
:1049F00006E0BAF10000AAF101011FFA81FAE8D13C
:104A000000BF072E00D0CEE0CA4800681FFA80F829
:104A10002820B5FBF0F5C848B0F900002D1A05EBC9
:104A200085054FF4A5706843050B462D01D8142D5C
:104A300014D20121C1A0FCF74AF92A46C1A1C548F8
:104A400002F081FFC34802F047FFAFF2586002F066
:104A500043FF41F6583001F0A5FD05E044F00104A4
:104A600040F6B83001F09EFDB8F1320F02DBB8F12C
:104A70005A0F14DD0121B1A0FCF729F94246B6A175
:104A8000B44802F060FFB34802F026FFAFF29C602A
:104A900002F022FF41F6583001F084FD01E044F0BD
:104AA0000204FEF7C7FB00212E20FEF7CDFC42F2E8
:104AB000107001F077FD4FF0280A00250FE032203A
:104AC00001F070FD9A48408A05449148FEF706FBC4
:104AD00028B100213046FEF755FF064606E0BAF140
:104AE0000000AAF101011FFA81FAE8D100BF072EE8
:104AF00000D058E08F48001F00681FFA80F8282077
:104B0000B5FBF0F58C48B0F900002D1A05EB8505D2
:104B10004FF4A5706843050B462D01D8142D14D20F
:104B2000012186A0FCF7D3F82A468FA1894802F01C
:104B30000AFF884802F0D0FEAFF2487002F0CCFEC7
:104B400041F6583001F02EFD05E044F004044FF426
:104B5000FA6001F027FDB8F1320F02DBB8F15A0F0D
:104B600014DD012175A0FCF7B2F8424682A1794814
:104B700002F0E9FE774802F0AFFEAFF2887002F073
:104B8000ABFE41F6583001F00DFD01E044F00804A1
:104B90000F2C05D101213046FEF7F4FE064602E057
:104BA000072E3FF408AF00BF53E000212E20FDF791
:104BB00083F94BE05648FEF791FA28B100213046C0
:104BC000FEF7E0FE064642E05948408AB0F5487FCD
:104BD00038DD642001F0E6FC5548408AB0F5487F96
:104BE00030DD5349498A544AB2F90020891A4FF4FA
:104BF000A572514301EB8100C11700EB11510D1358
:104C0000B5F5FA7F14D201214CA0FCF760F82A46D2
:104C10005DA1504802F097FE4E4802F05DFEAFF6EF
:104C20002C0002F059FE41F2883001F0BBFC09E093
:104C30004FF4FA6001F0B6FC01213046FEF7A2FE07
:104C4000064604E04FF4FA7001F0ACFCB2E700BF96
:104C500001E0082EA9D000BF002452E1FEF7F0FACF
:104C60002E210020FEF7F0FB42F2107001F09AFCBA
:104C70004FF0280A00250FE0322001F093FC2C4869
:104C8000808A05442248FEF729FA28B100213046DF
:104C9000FEF778FE064606E0BAF10000AAF101012F
:104CA0001FFA81FAE8D100BF092E00D02CE121487B
:104CB000083000681FFA80F82820B5FBF0F5384866
:104CC000B0F900002D1A05EB85054FF4A570684377
:104CD000050B462D01D8142D6FD2012117A0FBF72B
:104CE000F6FF2A462FA11B4802F02DFE194802F0BC
:104CF000F3FDAFF6001002F0EFFD41F6583001F081
:104D000051FC60E023425252434F4E20000000000D
:104D10001EE0FF00081801400010014023574154D5
:104D200045520000234455535442494E00000000B0
:104D300030050020382C01403000002023466169F6
:104D40006C000000234C65667420572043313D3AC7
:104D500025640A00E9150020234C6566742057205D
:104D600050313D3A25640A00234C65667420572073
:104D700043323D3A25640A00234C6566742057206F
:104D800050323D3A25640A00234C6566742057680A
:104D900065656C205374616C6C3D3A25640A0000B3
:104DA0003200002023526967687420572043313D48
:104DB0003A25640A00000000FFE744F001044FF4C4
:104DC000FA6001F0EFFBB8F1320F02DBB8F15A0FD5
:104DD00015DD0121AFF29C00FBF779FF4246FAA1F5
:104DE000FE4802F0B0FDFD4802F076FDAFF6FC1083
:104DF00002F072FD41F6583001F0D4FB01E044F0BE
:104E00000204FEF717FA2E210020FEF71DFB42F2E6
:104E1000107001F0C7FB4FF0280A00250FE0322088
:104E200001F0C0FBEE48808A0544EE48FEF756F9D3
:104E300028B100213046FEF7A5FD064606E0BAF18E
:104E40000000AAF101011FFA81FAE8D100BF092E82
:104E500000D059E0E44800681FFA80F82820B5FB2C
:104E6000F0F5E248B0F900002D1A05EB85054FF486
:104E7000A5706843050B462D01D8142D15D20121CC
:104E8000AFF24810FBF723FF2A46D9A1D34802F01E
:104E90005AFDD24802F020FDAFF6A82002F01CFD1A
:104EA00041F6583001F07EFB05E044F004044FF475
:104EB000FA6001F077FBB8F1320F02DBB8F15A0F5C
:104EC00015DD0121AFF28C10FBF701FF4246CDA1A9
:104ED000C24802F038FDC14802F0FEFCAFF6EC20FB
:104EE00002F0FAFC41F6583001F05CFB01E044F0BE
:104EF00008040F2C05D101213046FEF743FD06467C
:104F000002E0092E3FF4AAAE00BF53E02E2100209C
:104F1000FCF7D2FF4BE0B348FEF7E0F828B10021E0
:104F20003046FEF72FFD064642E0AD48808AB0F5D8
:104F3000487F39DD642001F035FBA948808AB0F54F
:104F4000487F31DDA649898AA84AB2F90020891A2A
:104F50004FF4A572514301EB8100C11700EB1151D1
:104F60000D13B5F5FA7F15D20121AFF23020FBF712
:104F7000AEFE2A46A8A1994802F0E5FC974802F047
:104F8000ABFCAFF6903002F0A7FC41F2883001F0A4
:104F900009FB09E04FF4FA6001F004FB01213046FF
:104FA000FEF7F0FC064603E0642001F0FBFAB2E7EE
:104FB00000BF01E00A2EA9D000BF0024B7E0002402
:104FC000FCF794F99949B1FBF0F0C7B239460020DB
:104FD000FEF722FA42F2107001F0E4FA4FF0280ACC
:104FE000002519E0FCF782F99049B1FBF0F0C7B257
:104FF00039460020FEF710FA642001F0D3FA784811
:10500000C08A05447748FEF769F828B10021304688
:10501000FEF7B8FC064606E0BAF10000AAF101016D
:105020001FFA81FADED100BF0B2E00D082E02820CB
:10503000B5FBF0F57E48B0F900002D1A00BF4FF423
:10504000A5706843050B1E2D01D8062D15D2012130
:10505000AFF21830FBF73BFE2A4676A15F4802F01C
:1050600072FC5E4802F038FCAFF6784002F034FC87
:1050700041F2883001F096FA08E00124012171A084
:10508000FBF725FE4FF4FA6001F08CFA1C20FEF7C6
:10509000EBF949E05348FEF721F828B100213046EA
:1050A000FEF770FC064640E04D48C08AB0F5167F1A
:1050B00037DD642001F076FA4948C08AB0F5167FE2
:1050C0002FDD4749C98A5A4AB2F90020891A4FF49C
:1050D000A57201FB02F0C11700EB11510D13462D13
:1050E00015D20121AFF2AC30FBF7F1FD2A4657A1F2
:1050F0003A4802F028FC394802F0EEFBAFF60C50BB
:1051000002F0EAFB41F2883001F04CFA09E04FF47A
:10511000FA6001F047FA01213046FEF733FC0646FB
:1051200003E0642001F03EFAB4E700BF02E00B2E7A
:105130003FF445AF00BF00210846FEF76DF900249B
:10514000D0E04FF49660FEF769F84548006940F0FA
:105150004000434908612820FEF766F847F23050C6
:1051600001F020FABBE04FF0140A002505E06420AE
:1051700001F018FA1A48008B0544BAF10000AAF1B0
:1051800001011FFA81FAF2D10C2E00D0A8E0142000
:10519000B5FBF0F53348B0F900002D1A05EB85009A
:1051A00045004FF4A5706843050B40F2DC50854282
:1051B00002D8B5F5487F64D20121AFF28040FBF7F9
:1051C00086FD2A4650E00000235269676874205724
:1051D0002050313D3A25640A00000000E915002006
:1051E000300500201EE0FF003C2C01403200002072
:1051F00023526967687420572043323D3A25640A78
:105200000000000023526967687420572050323D27
:105210003A25640A0000000023526967687420532D
:1052200074616C6C3D3A25640A000000A0860100A0
:10523000360000202352427275736820433D3A25A0
:10524000640A0000405061737300000023524272F0
:105250007573685374616C6C3D3A25640A000000F4
:10526000001001403A000020F5A1F84802F06BFB65
:10527000F64802F031FBAFF6846002F02DFB00240B
:1052800000E0641CF24800681FFA80F8B8F11E0FB5
:1052900002DBB8F15A0F11DD0121AFF26050FBF7CC
:1052A00016FD4246EBA1E94802F04DFBE74802F04B
:1052B00013FBAFF6C06002F00FFB002409E0FCF71F
:1052C00061FA022805D101213046FEF75BFB064654
:1052D00001E0002CF3D100BF012C00D900E042E72F
:1052E00000BF02E00C2E3FF42CAF00BFDC48406949
:1052F00040F04000DA49486100240120FEF772F8CE
:10530000BAE00024FBF7F2FFD649B1FBF0F0C7B2D8
:105310003846FEF761F842F2107001F043F94FF0A1
:10532000140A002518E0FBF7E1FFCE49B1FBF0F0CD
:10533000C7B23846FEF750F8642001F033F9CA4886
:1053400040880544C948FDF7C9FE28B10021304610
:10535000FEF718FB064606E0BAF10000AAF10101CB
:105360001FFA81FADFD100BF0D2E00D087E0142094
:10537000B5FBF0F5BE48B0F900002D1A05EB850528
:105380004FF4A5706843050BB5F5AF7F01D8642DC8
:1053900015D20121AFF25C60FBF799FC2A46B5A15A
:1053A000AA4802F0D0FAA94802F096FAAFF6BC700B
:1053B00002F092FA41F2883001F0F4F809E0012499
:1053C0000121AFF28010FBF782FC4FF4FA6001F08C
:1053D000E9F81C20FEF748F84BE0A448FDF77EFEF4
:1053E00028B100213046FEF7CDFA064642E09E483D
:1053F0004088B0F5487F39DD322001F0D3F89A4873
:105400004088B0F5487F31DD97494988984AB2F91C
:105410000020891A4FF4A572514301EB8100C11796
:1054200000EB11510D13B5F5FA7F14D20121AFF243
:10543000F460FBF74CFC2A4691A1844802F083FA01
:10544000824802F049FA92A002F046FA41F288300E
:1054500001F0A8F80AE04FF4FA6001F0A3F82CB1CB
:1054600001213046FEF78EFA064603E0642001F083
:1054700099F8B2E700BF02E00D2E3FF442AF00BF43
:105480000020FDF7A9FF00200390FDE1002517E0B3
:105490004FF4FA7001F086F801217EA0FBF717FCAB
:1054A0008248006800F4005000B10AE06F48FDF740
:1054B00015FE28B100213046FEF764FA064600E0EA
:1054C000E6E700BF0E2E00D0E1E1FBF729F801204E
:1054D000774908604FF496770025002005908346B1
:1054E0001CE1142001F05EF80598401C80B2059084
:1054F0000598B0F5167F00DD11E15B4880886D49A5
:105500000988884205DA6B480088FBF72FFF0546BB
:1055100000E00025B5F5967F0FD9B5F5C87F06D90F
:105520000A2F00DA0A27A7F1140087B21AE0022F27
:1055300000DA0227B81E87B214E0B5F58C7F03D2DB
:1055400007F11E0087B208E0B5F5917F03D207F19D
:105550000A0087B201E0781C87B2B7F57A7F01DDD7
:105560004FF47A77524807601E21059890FBF1F2BC
:1055700001FB1200F0BB50A13448059A02F0E3F998
:10558000324802F0A9F942A002F0A6F93648828812
:105590004CA12E4802F0D7F92C4802F09DF93CA00E
:1055A00002F09AF92A464AA1284802F0CCF9274885
:1055B00002F092F936A002F08FF93D48026846A148
:1055C000224802F0C0F9214802F086F930A002F02A
:1055D00083F9CBF1010000F0FF0BBBF1000F09D103
:1055E0000898401CC0B208900898032801DD0020EC
:1055F000089000E088E0089840B900200090034639
:10560000024601460190FDF79DFE75E008980128CD
:1056100009D1002000900346024601460190012076
:10562000FDF790FE68E00898022859D1002000900C
:1056300003460246012101900846FDF783FE5BE028
:105640002356616320433D3A25640A00E915002092
:105650003C3401402356616320503D3A25640A00E2
:1056600000100140084C0100300500201EE0FF0042
:1056700038000020234D4220433D3A25640A0000B3
:10568000234D42205374616C6C3D3A25640A00003E
:105690000D0000005761697420666F7220636861B5
:1056A0007267657220706C7567696E00081401403E
:1056B000340800404400002054696D653A25640AAE
:1056C00000000000495F41443A25640A00000000E0
:1056D000493A25640A000000503A25640A00000097
:1056E0000898032808D100200090034601221146A3
:1056F00001901046FDF726FE642000900346024606
:1057000001460190FDF7A2FD6348FDF7E7FC28B1D3
:1057100000213046FEF736F9064600E0E1E600BF1C
:105720000E2E00D0B3E00020009003460246014652
:105730000190FDF7EFFD0020009003460122014695
:1057400001901046FDF7FEFD002054490860FA2F35
:1057500003DB40F25230874225DD0121AFF62420E1
:10576000FBF7B5FA3A464EA1514802F0ECF8504822
:1057700002F0B2F8AFF2E80002F0AEF800200090BC
:1057800003460122114601901046FDF7C3FD08E0D3
:105790000220FBF70FFE642803DD0E260120039094
:1057A00000E0F5E703E04FF4FA6000F0FBFE039839
:1057B00000B16CE0E62D02D3B5F5C37F25D90121F8
:1057C000AFF68820FBF783FA2A463AA1384802F060
:1057D000BAF8374802F080F8AFF24C1002F07CF8CB
:1057E0000020009003460122114601901046FDF76B
:1057F00091FD08E00220FBF7DDFD642803DD0E26A5
:105800000120039000E0F5E700BF039800B13EE0FF
:105810000121AFF2D050FBF75AFA09E04FF4FA70C9
:1058200000F0C0FE2748006800F4005000B900E016
:10583000F4E700BF0121AFF2F450FBF748FA012072
:1058400000900346024601460190FDF77BFD64206F
:1058500000900346024601460190FDF7F7FC10E078
:105860000D48FDF73BFC20B100213046FEF78AF8D9
:1058700008E00220FBF79EFD642802DD00BF00BFA8
:1058800000E0EDE700BF02E00E2E3FF4FFAD00BFE9
:1058900000BFFEE7FEF75EBC1EE0FF0034080040DC
:1058A0002343686172676550574D3D3A25640A008D
:1058B000E91500202343686172676520433D3A255E
:1058C000640A000008140140144800684FF68F7104
:1058D000084012490860632010492C310860772085
:1058E000091F086001200D4914310860C0030B49ED
:1058F0004431086043F2333008492031086046F6ED
:105900006800064918310860091D086003480068EE
:1059100040F081000149086070470000002C014000
:105920004FF0804000684FF68F7108404FF0804183
:10593000086040F22B10C86240F21F3088620120DC
:105940004861002008628861C861012048631E2008
:1059500088633220C863F82008641E20C8600846A7
:10596000006840F081000860704700001648006839
:105970004FF68F71084014490860632012492C319A
:1059800008607720091F086001200F491431086062
:10599000C0030D4944310860C0110B492031086033
:1059A00000200949183108606820091D0860064870
:1059B000006840F08100044908600448406820F411
:1059C00080500249486070470008004000000140D4
:1059D00063200549C8627720886201204861C86059
:1059E000812008607047000000100040092008492D
:1059F00008600B20091F086001200549183908605C
:105A0000034920390860812001492C39086070471A
:105A10002C140040144800684FF68F71084012495A
:105A20000860632010492C3108607720091F086046
:105A300001200D4914310860C0030B49443108604E
:105A40004FF488700849203108604FF4D04006496F
:105A5000183108606820091D08600348006840F09C
:105A600081000149086070470034014000B5002002
:105A7000FDF7D4FB0448406940F04000024948610A
:105A80000A20FDF7D1FB00BD0010014040F211409B
:105A90000949086008480C30006840F08100064958
:105AA0000C3108600448001D006842F208010843F8
:105AB0000149091D086070470838014000BF0C4AC1
:105AC000926C002AFBD10A4A526C22F00102084B68
:105AD0005A64084ADA641A4611659064526C42F0BE
