:020000040800F2
:1000000088B60020FD010008B1B80008817800081A
:10001000F1B500083D1E0008013401080000000091
:100020000000000000000000000000004501000882
:10003000116D000800000000990100087511010809
:1000400017020008170200081702000829E3000839
:10005000170200081702000829700008BD70000888
:10006000D1700008757100088B7100081702000834
:100070001702000817020008BD6C000817020008EC
:1000800017020008F16C00081702000817020008A8
:10009000170200081702000817020008A1710008E3
:1000A00017020008170200081702000817020008CC
:1000B0002D13010817020008170200081702000894
:1000C00017020008170200081702000817020008AC
:1000D00017020008A130010815310108B9310108E3
:1000E0003D700008170200081702000817020008F8
:1000F000170200081702000817020008170200087C
:10010000170200081702000817020008170200086B
:1001100017020008170200087517010805180108E2
:10012000170200081702000817020008170200084B
:10013000DFF80CD000F008FC0048004735790108D2
:1001400088B600202A4B19680868B0E8F04F80F3A1
:100150000988BFF36F8F4FF0000080F3118870475C
:100160000000000006480068006880F3088862B656
:1001700061B6BFF34F8FBFF36F8F00DF00BF00BFCB
:1001800008ED00E0DFF80C00016841F47001016047
:10019000704700BF88ED00E0EFF30980BFF36F8F79
:1001A000134B1A681EF0100F08BF20ED108A20E9CB
:1001B000F04F106008B44FF0600080F31188BFF377
:1001C0004F8FBFF36F8F18F0D7FF4FF0000080F311
:1001D000118808BC19680868B0E8F04F1EF0100FCD
:1001E00008BFB0EC108A80F30988BFF36F8F7047A7
:1001F000B8040020EFF305807047000006488047F0
:1002000006480047FEE7FEE7FEE7FEE7FEE7FEE7FB
:10021000FEE7FEE7FEE7FEE77D1101083101000879
:100220002DE9F05F0546002092469B46884606462B
:10023000814640241BE0284641464746224600F0BE
:100240006EFA53465A46C01A914110D311461846C9
:10025000224600F055FA2D1A67EB01084F46224658
:100260000120002100F04CFA17EB00094E41201E3E
:10027000A4F10104DFDC484631462A464346BDE886
:10028000F09F40EA01039B0703D009E008C9121F51
:1002900008C0042AFAD203E011F8013B00F8013B40
:1002A000521EF9D27047D2B201E000F8012B491E6C
:1002B000FBD270470022F6E710B513460A46044603
:1002C0001946FFF7F0FF204610BD30B50446002068
:1002D000034600E05B1C934203D2E05CCD5C401B14
:1002E000F8D030BD2DE9FE4F804681EA0300C00FF3
:1002F0000C46009021F0004123F00045B8EB0200CD
:10030000A94105D24046214690461C460B4602466E
:1003100023F00040104347D0270DC7F30A00C3F372
:100320000A510290401A019040286BDAC3F313007F
:1003300040F4801B0098924620B10023D2EB030AC0
:1003400063EB0B0B01985946C0F14002504600F098
:10035000D7F906460D4650465946019A00F0EFF986
:1003600010EB08006141002487EA115284EAE77328
:100370001A4340D0009A62B3019A012A4FEA075209
:1003800015DC001B61EB02014FF0004202EA07524C
:10039000CDE90042001C41F5801132462B4600F0A9
:1003A000EFF903B0BDE8F08F40462146F9E7001BA6
:1003B00061EB0201001C41F5801300185B4120181D
:1003C000A2F5001747EB030140EAD570B6196D415D
:1003D00011E06D084FEA360645EAC0754FEA07524C
:1003E000001B61EB0201001C41F5801149084FEA36
:1003F00030000019514132462B4603B0BDE8F04FA2
:1004000000F0AFB90098012240000023D0EB0202B7
:1004100063EBE073009821464FEAE074B8EB00000C
:1004200061EB0401E9E783F000435BE781F0004101
:1004300058E72DE9FE4F81EA030404F0004421F05F
:10044000004100944FF0000B23F0004350EA0104F8
:100450005ED052EA03045BD0C3F30A54C1F30A55D9
:100460002C44A4F2F3340194A0FB0254C1F3130111
:1004700041F48011C3F3130343F4801301FB0244DE
:1004800000FB034E840A970A44EA815447EA8357E3
:10049000A4FB076802958D0A05FB07854FEA932C9C
:1004A00004FB0C542705029D4FEA065847EA16370D
:1004B000B5EB08056EEB070C870E920E47EA811725
:1004C00042EA8312A7FB0201B6EB0B0164EB0004C6
:1004D0002B0D43EA0C335E1844EB1C50DA465146B0
:1004E000E7FB0201C5F313044FEA0B3343EA14534D
:1004F0004FEA0432019C43EA0603A4F10C0402947F
:10050000009CCDE900B400F03BF903B0BDE8F08FEA
:1005100000200146F9E72DE9F04D81EA030404F0DB
:10052000004B21F0004514464FF0000A23F0004133
:1005300050EA050220D054EA01021DD0C5F30A5743
:100540000246C5F31303C1F31300C1F30A5640F486
:10055000801543F48013A7EB0608101BD64608F25B
:10056000FD3873EB050002D308F1010801E0921891
:100570005B41B8F1000F03DA00200146BDE8F08DC1
:1005800000204FF48011064684460EE0171B73EBE3
:10059000050705D3121B63EB050306434CEA010C68
:1005A00049084FEA300092185B4150EA0107EDD14B
:1005B00052EA030012D082EA040083EA05010843EC
:1005C00005D0101BAB4106D20122002306E0002219
:1005D0004FF0004302E06FF0010253101AEB0600E7
:1005E0004CEB085110EB0A0041EB0B01BDE8F04D5C
:1005F00000F0B7B80EB5C10F80EAE0700844CA0732
:10060000002140F233438DE80E000A460B4600F00D
:10061000B7F803B000BD0EB540F23341029100219E
:10062000CDE900110A460B4600F0AAF803B000BD60
:1006300070B5C1F30A5201F000450024C1F3130163
:1006400040F2FF3341F480119A4201DA002070BD7C
:1006500040F233439A42A2F2334203DC524200F0AA
:100660005EF800E090402C43F1D0404270BDC1F3F1
:100670000A5210B5C1F3130140F2FF3341F4801167
:100680009A4201DA002010BD40F233439A42A2F2AE
:10069000334203DC524200F042F810BD904010BDDE
:1006A00030B5041E71F1000404DB4FF000444042F9
:1006B00064EB0101141E73F1000405DB1C464FF0CE
:1006C0000043524263EB04038B4208BF824230BDB9
:1006D00030B5041E71F1000404DB4FF000444042C9
:1006E00064EB0101141E73F1000405DB1C464FF09E
:1006F0000043524263EB0403994208BF904230BD6D
:10070000202A04DB203A00FA02F1002070479140D1
:10071000C2F1200320FA03F3194390407047202AC6
:1007200004DB203A21FA02F00021704721FA02F39B
:10073000D040C2F120029140084319467047202A58
:1007400006DBCB17203A41FA02F043EAE07306E0F9
:1007500041FA02F3D040C2F1200291400843194609
:10076000704710B5141E73F1000408DA401C41F103
:10077000000192185B411A4301D120F0010010BD25
:100780002DE9F04D92469B4611B1B1FA81F202E09B
:10079000B0FA80F220329046FFF7B2FF04460F46CF
:1007A00040EA0A0041EA0B0153465A46084313D077
:1007B000114653EA010019D0C8F140025046FFF734
:1007C000AEFF05460E46504659464246FFF798FF93
:1007D000084305D0012004E020463946BDE8F08DED
:1007E0000020054346EAE0762C4337430A98630528
:1007F000E40AA0EB08000022FD0A44EA47540A304C
:1008000002D500200146E9E7010510196941DDE93B
:10081000084500196941BDE8F04DA2E72DE9F04D0A
:1008200000231A461B1A8A4103DB00200146BDE85B
:10083000F08DC1F30A52C1F3130141F480154FF05A
:10084000000BD10702D100186D41521E002704464B
:1008500040F2FF11384601EB620A3E4680460246EE
:1008600000204FF48011FFF75AFFC2197141BB18E5
:1008700046EB0100B4EB030C75EB000C04D3E41A57
:1008800065EB000517460E46241908F101006D417D
:1008900080463428E3DDF91946EB0600091BA84120
:1008A00003D24FF0FF32134601E0002213461BEB48
:1008B000070046EB0A51BDE8F04DFFF752BF0000BC
:1008C0002DE9F041054621F000400C46284309D0AF
:1008D000C4F30A5040F23341884205DD28462146E0
:1008E000BDE8F0812846FBE740F2FE31884210DC8B
:1008F0000CDB4FEA043040EA155050EA053105D0D0
:10090000104804F0004101430020E9E700200146BF
:10091000E6E7A0F233404642C6F1400228462146AF
:10092000FFF7EEFE07468846284621463246FFF787
:10093000F6FE43463A46FFF714FF3246BDE8F04163
:10094000FFF7DEBE0000F03F064C074D06E0E06812
:1009500040F0010394E8070098471034AC42F6D306
:10096000FFF7EAFB58A9010878A9010870B58C18AF
:1009700010F8015B15F0070301D110F8013B2A11B3
:1009800006D110F8012B03E010F8016B01F8016BA0
:100990005B1EF9D12B0705D40023521E0DD401F89C
:1009A000013BFAE710F8013BCB1A921C03E013F865
:1009B000015B01F8015B521EF9D5A142D8D300209A
:1009C00070BD000070B505460E4614461E480078FE
:1009D00050280EDD4FF426731C4A1DA1244818F040
:1009E000D2F8234818F098F822A018F095F80020C3
:1009F00070BD022C01D1012400E002241E480078C1
:100A000000EB40001D4921F810501B48007800EB16
:100A1000400001EB400046801748007800EB4000A2
:100A200001EB4000047114480078401CC0B2124928
:100A30000870502801DD0020087003480078401C31
:100A4000014908700120D3E79C010020E6A50108B8
:100A50002573282564293A746865207265616C6D78
:100A6000617020636E742069732066756C6C0A0077
:100A7000D47800200D0000009D010020125A0020B3
:100A800001480078704700009C01002010B5044622
:100A90001848007870B940F2B723174A17A11C48CC
:100AA00018F071F81A4818F037F81AA018F034F84E
:100AB000002010BD1848007800EB4000174901EBFA
:100AC0004000016821608088A08013480078401CA5
:100AD000C0B211490870502801DD00200870054897
:100AE0000078002804DD03480078401E01490870A2
:100AF0000120DEE79C010020FAA5010825732825C6
:100B000064293A4E6F2050617468206F75740A0032
:100B1000D47800200D0000009E010020125A002011
:100B20000021104A1170104A1170104A1170104AB9
:100B30001180104A1180002011E0002100EB4002DA
:100B40000D4B23F8121000EB400203EB42025180E0
:100B500000EB400203EB42021171411CC8B2502865
:100B6000EBDB70479E0100209D0100209C010020CE
:100B70007E0100207C010020125A002001490870EB
:100B8000704700009F010020002043490860091DB4
:100B900008600846006840F00100086008460068E8
:100BA00040F00800086000BF3B48001D006800F0EE
:100BB00008000028F8D13848001D006840F0040003
:100BC0003549091D086000BF3348001D006800F06A
:100BD00004000028F8D13048006820F440002E4975
:100BE00008602D48083000682C4908432A4908311C
:100BF0000860081D00682A49084327490C3108602D
:100C000025483030006827490843234930310860BF
:100C1000081F0068244908431F492C310860081F39
:100C2000006842F20F5108431B492831086008460A
:100C3000006840F4600008601748006840F4807065
:100C400015490860081D006840F48010091D0860FF
:100C500008460068154908430F49091D0860084601
:100C6000006840F0010008600846006840F4800019
:100C7000086000200E4988604FF4B4608860064820
:100C8000483008610B4848610F20C86008468068FA
:100C900040F00100886070470424014024490200AC
:100CA000240992246AB106026214731C00010E002A
:100CB00000000240DC59002030B5164C247804EBCB
:100CC0004404154D05F82400124C247804EB440428
:100CD00005EB840461600F4C247804EB440405EBBD
:100CE000840422810B4C247804EB440405EB840437
:100CF0006381084C2478641C064D2C702C462478A3
:100D0000142C01DD00242C70044C2478641C034D49
:100D10002C7030BDE8030020EC020020EA03002024
:100D200013B5DDE9000103F0B7FA27231A460021C5
:100D30001020FFF7C1FF1CBD10B5044600F010F8ED
:100D40001E231A4621460720FFF7B6FF00231A4646
:100D500019460820FFF7B0FF132000F025FA10BD58
:100D60000020034908700349087003490870704760
:100D7000E9030020EA030020E803002000B5FFF7A4
:100D8000EFFF00231A4619460820FFF795FF0023BE
:100D90001A4619460120FFF78FFF132000F004FACE
:100DA00000BD00000148007870470000EA03002001
:100DB0000EB501461A48007848B319480078401E1D
:100DC000174A1070174A127802EB4202164B03EBD7
:100DD000820002788DF80020426801920289ADF805
:100DE00008204289ADF80A2001200E4A127802EB51
:100DF000420203F822000B480078401C094A107098
:100E000010460078142805DD0020107002E0012053
:100E10008DF800009DE80D0081E80D000EBD00007A
:100E2000EA030020E9030020EC0200203EB56846FA
:100E3000FFF7BEFF6C469DF80000784908700198E6
:100E40004860BDF808000881BDF80A0048810846DE
:100E500000781D2873D2DFE800F0DCD9A7B28189C1
:100E60001AC8D6DCDCDC253B4ADCD3DC0FDCDCDC5E
:100E700030BD6473919C5900684C23786268648922
:100E8000E1B2664C2489E0B200F047F9C4E0634C5B
:100E9000237862686489E1B2604C2489E0B200F092
:100EA0003CF9B9E05D4C237862686489E1B25B4C3F
:100EB0002489E0B200F031F9AEE0584C2378626842
:100EC0006489E1B2554C2489E0B200F026F9A3E030
:100ED0005248037840F698020D21342000F01DF9A5
:100EE000002014F067FA002014F08CFA94E04B48CC
:100EF000037840F6980234210D2000F00EF900200E
:100F000014F058FA002014F07DFA85E0434C237861
:100F100062686489E1B2414C2489E0B200F0FDF8D6
:100F20007AE014F081F9044614F04EF905463B4886
:100F300003783B4A2146284600F0EFF86CE068E071
:100F400014F072F9044614F03FF90546334803786B
:100F5000334A2146284600F0E0F85DE02F48037848
:100F600042683421002000F0D8F855E02B4803787F
:100F700042680021342000F0D0F84DE0274C23785F
:100F800062686489E1B2254C2489E0B200F020F95E
:100F900042E0224C237862686489E1B21F4C2489C4
:100FA000E0B200F015F937E01C4C237862686489E0
:100FB000E1B21A4C2489E0B200F00AF92CE0174C97
:100FC000237862686489E1B2144C2489E0B200F0AD
:100FD000FFF821E0114C237862686489E1B20F4C7C
:100FE0002489E0B200F0F4F816E00C4C2378626833
:100FF0006489E1B2094C2489E0B200F06AF80BE0A0
:1010000000F054F808E000F03DF805E014F0D0FAE4
:1010100002E014F0CDFA00BF00BF3EBDC86800205A
:10102000FEFFFF1F10B50446FFF79AFE00231A4685
:1010300019460820FFF740FE00231A4619460120F2
:10104000FFF73AFE132000F0AFF810BD30B50446AC
:101050000D46082C04D100231A461946FFF72CFE32
:1010600025231A4629460C20FFF726FE25231A467B
:1010700003490620FFF720FE132000F095F830BD4D
:10108000FEFFFF1F00B50021084614F0D9F9082023
:1010900000F08AF814F0F4F8002011F0BDFF00BD54
:1010A0000148007870470000E80200201CB568463F
:1010B00001F07AFADDE9000101F0EAFB102000F00E
:1010C00073F814F0DDF8012011F0A6FF11F09AFF7B
:1010D0001CBD2DE9F04105460E4614461F4631461B
:1010E000284614F0ADF9204614F09AF9204614F081
:1010F0006FF93146284614F099F9082014F0E0F809
:1011000014F0BEF8072000F04FF801200AF00EFBA3
:10111000002011F081FFBDE8F0812DE9F041064685
:101120000F4614461D463946304614F089F92146CB
:10113000204614F08FF9284600F036F8042014F009
:10114000BFF814F09DF801200AF0F0FA002011F029
:1011500063FFBDE8F081000037B51446DDE900010A
:101160000CF05CFEE1B2E0B214F06AF90D4814F044
:1011700057F90C4814F02CF9112000F015F8042050
:1011800014F09EF801200AF043FE012013F09CFEAB
:1011900001200AF0CBFA002011F03EFF14F070F8A5
:1011A0003EBD0000FEFFFF1F0149087070470000B0
:1011B000E802002010B5FFF7D3FD14F0F9F9132071
:1011C000FFF7F2FF142017F023FE14F059F810BDBA
:1011D0002DE9F04106460F4615461C463946304675
:1011E00014F02EF9052C01D0042C02D105EB45009A
:1011F0004508284614F014F9284614F0E9F820466A
:10120000FFF7D2FF022C03D0042C01D01A2C06D1F8
:10121000012014F055F8022005F0A2FD05E002209F
:1012200014F04EF8012005F09BFD14F029F8012080
:101230000AF07CFA012011F0EFFEBDE8F08100B564
:1012400013F0BCFF014613F0C5FF814206D213F034
:10125000E5FF014613F0EEFF814204D31320FFF7B0
:10126000A3FF012000BD0020FCE7000010B50446EC
:101270002246F4A1F74817F086FCF64817F04CFC1C
:10128000F5A017F049FCF54804600068F4490840EF
:10129000F2490860ACB104F4706060B1F1480078C4
:1012A000401CF049087008460078002806DD002040
:1012B000ED49087002E00020EA4908700DF0F4FFE3
:1012C00007E00020E7490870E8480068401CE7494B
:1012D0000860E5480078012874D1E048E4A102687C
:1012E000DC4817F050FCDB4817F016FCDAA017F0CA
:1012F00013FCDA4800683C286CD023DC1C286ED034
:101300000EDC15286CD2DFE800F06BF06BF5EDEC2D
:101310006B6BCEEBEAE3E9E86B93A76B6B6B9D001D
:1013200020381928EED2DFE800F0EF5B5B5B5C5BF6
:101330005B5BB9EEEDCEB4ECC4C9EB5B5B5B885B89
:101340005B5BEA00B0286FD020DC82286DD00EDC19
:1013500054286BD006DC3F2852D0412867D0502853
:101360003ED1FFE074287CD08028F9D1CDE0A028C0
:101370006ED006DC90286CD094286BD09528EFD1E5
:1013800031E1A92867D0AD28EAD13BE1F02846D069
:101390000EDCC0286FD006DCB4286DD0B5286CD028
:1013A000BF28DDD136E0D0286ED0D428D8D166E071
:1013B000FF281BD007DCF42858D0FC281BD0FD28C0
:1013C000CED122E064E1B0F5005F71D0B0F5803F8E
:1013D000C6D12BE10E21084614F032F830E116E1B7
:1013E00029E10D21084614F02BF829E10C210846CB
:1013F00014F026F824E10F21082014F021F81FE151
:1014000008210F2014F01CF81AE10F21082014F015
:1014100017F815E108210F2014F012F810E10F2140
:10142000082014F00DF80BE192E0B9E0A4E0B2E07E
:1014300008210F2014F004F802E10D210A2013F016
:10144000FFFFFDE00F210A2013F0FAFFF8E008E0AB
:10145000BAE069E06DE0CBE00F21052013F0F0FF6A
:10146000EEE00F210B2013F0EBFFE9E00F210B2042
:1014700013F0E6FFE4E04DE088E0BEE004E00F2179
:101480000A2013F0DDFFDBE00821032013F0D8FF72
:10149000D6E00A210D2013F0D3FFD1E00A210F205E
:1014A00013F0CEFFCCE005210F2013F0C9FFC7E0F9
:1014B000B7E00B210F2013F0C3FFC1E00B210F2079
:1014C00013F0BEFFBCE00A210F2013F0B9FFB7E014
:1014D0000321082013F0B4FFB2E034E065E03CE003
:1014E0001DE06CE075E005E0FFE700210F2013F040
:1014F000A7FFA5E000210F2013F0A2FFA0E08BE0E2
:1015000058E03EE033E019E068E00F21002013F0DE
:1015100097FF95E00F21002013F092FF90E0082143
:101520000F2013F08DFF8BE00F21082013F088FFB0
:1015300086E00D21082013F083FF81E008210D20B3
:1015400013F07EFF7CE00A210E2013F079FF77E094
:101550000E210A2013F074FF72E008210F2013F00F
:101560006FFF6DE00F21082013F06AFF68E008218B
:101570000F2013F065FF63E00F21082013F060FFD8
:101580005EE009210C2013F05BFF59E00C210920DB
:1015900013F056FF54E009210F2013F051FF4FE0E4
:1015A0000F21092013F04CFF4AE008210C2013F012
:1015B00047FF45E00C21082013F042FF40E00421E2
:1015C0000F2013F03DFF3BE00F21042013F038FF04
:1015D00036E00F21082013F033FF31E008210F20FF
:1015E00013F02EFF2CE00D210B2013F029FF27E034
:1015F0000B210D2013F024FF22E00E210C2013F00C
:101600001FFF1DE00C210E2013F01AFF18E0082127
:101610000A2013F015FF13E00A21082013F010FF31
:101620000EE000210A2013F00BFF09E00A21002040
:1016300013F006FF04E00F210C2013F001FF00BFA0
:10164000BCE100000A20436F6465203D30783A20F9
:1016500025782000D47800200D00000078000020BC
:10166000FF30030071000020700000207C0000208B
:1016700020526F626F745F486F6D655F4469737469
:10168000616E6365466172203D30783A20257800AE
:10169000CB480078CA4908600846CAA10268D24807
:1016A00017F071FAD04817F037FAAFF2540017F07C
:1016B00033FAC3480068382872D021DC1C2870D067
:1016C0000EDC15286ED2DFE800F06DDD6D6DF0EFF9
:1016D0006D6DC4E7EED8EDEC6D87996D6D6D94007E
:1016E00020381528EED2DFE800F0EF5D5D5D515D3A
:1016F0005D5DAFF0EDC3AAECB9BEEB5D5D5D7F0053
:10170000A9286ED01EDC80286CD00EDC50286AD050
:1017100006DC3C2835D03F284AD0412842D101E19F
:10172000542870D07428F9D170E094286CD004DC6F
:1017300082286AD09028F1D1B8E0952870D0A028EE
:10174000ECD108E1D42870D00EDCB5286AD006DCD4
:10175000AD2868D0B02867D0B428DFD1DDE0BF283D
:1017600030D0D028DAD165E0FC281CD004DCF02889
:101770002DD0F428D2D14EE0FD281ED0FF28CDD1A7
:1017800009E00A21084613F05BFE16E1092108462C
:1017900013F056FE11E10821084613F051FE0CE14A
:1017A00001E1FBE004E10721032013F049FE04E11D
:1017B0000321072013F044FEFFE00721052013F06A
:1017C0003FFEFAE00521072013F03AFEF5E007217D
:1017D000032013F035FEF0E00321072013F030FE64
:1017E000EBE0CCE053E084E00721052013F028FE75
:1017F000E3E00621022013F023FEDEE006210220B2
:1018000013F01EFED9E07EE055E090E007210420B1
:1018100013F016FED1E00721042013F011FECCE0F6
:10182000A8E002E0B0E0B4E059E00821062013F09F
:1018300007FEC2E00821032013F002FEBDE00521EF
:10184000072013F0FDFDB8E00221062013F0F8FD9B
:10185000B3E00221062013F0F3FDAEE005210720DE
:1018600013F0EEFDA9E00421072013F0E9FDA4E048
:101870000621082013F0E4FD9FE00321082013F067
:10188000DFFD9AE000210C2013F0DAFD95E00C2139
:10189000002013F0D5FD90E003210A2013F0D0FDC5
:1018A0008BE017E048E01FE050E059E00A210320F8
:1018B00013F0C6FD81E00821042013F0C1FD7CE097
:1018C0003FE025E01AE000E04FE00421082013F09B
:1018D000B7FD72E007210C2013F0B2FD6DE00C2182
:1018E000072013F0ADFD68E005210C2013F0A8FDE2
:1018F00063E00C21052013F0A3FD5EE00721082022
:1019000013F09EFD59E00821072013F099FD54E0E3
:101910000521092013F094FD4FE00921052013F063
:101920008FFD4AE00521092013F08AFD45E00921D9
:10193000052013F085FD40E00721092013F080FD0C
:101940003BE00821062013F07BFD36E006210B204A
:1019500013F076FD31E00B21062013F071FD2CE031
:101960000921072013F06CFD27E00621082013F061
:1019700067FD22E00821072013F062FD1DE007212A
:10198000082013F05DFD18E00821072013F058FD32
:1019900013E00721082013F053FD0EE00821072073
:1019A00013F04EFD09E00721082013F049FD04E083
:1019B0000821072013F044FD00BF00BF10BD000048
:1019C0007800002020526F626F745F486F6D655F12
:1019D00044697374616E63654E656172203D307851
:1019E0003A20257820000000D478002010B52E4839
:1019F000006800F40040002855D12C480078F8B960
:101A00002B48006840F400402949086003200DF08D
:101A10007DFF28480068C0F307400DF077FF254898
:101A20000088C0F307200DF071FF224908780DF0FF
:101A30006DFF00202049086001201C49087032E039
:101A40001A48007801282ED1FF200DF05FFF1B49B6
:101A5000087008460078C82801DBC82008701748BD
:101A600002780221002015F04FFA13480068401C4C
:101A7000114908600846006811490968884212D96E
:101A80000B48001F006840F400400949091F086026
:101A900005480830006840F40040034908310860F8
:101AA00002200249087010BD0818014029020020D8
:101AB000140801402C0200203402002028020020DB
:101AC000300200200B49096801440A4A116011469E
:101AD0004989814201DD114648810649898981424F
:101AE00001DA044988810349097A491C014A1172C3
:101AF00070470000345C00203EB5002400F008F977
:101B0000A0F596600A2190FBF1F004B2002C00DAF7
:101B100000242E2C00DD2E241348005D1349887309
:101B20000846807BC0F1640011494843642190FB62
:101B3000F1F00E49486000F0EBF805460B484068AC
:101B40000A49897B4FF424730A4ACDE90051029077
:101B500009A1144817F017F8124816F0DDFF12A07B
:101B600016F0DAFF3EBD00000FA60108345C00202D
:101B7000C0115A013EA601082573282564293A623E
:101B800061747465727920766F6C746167653A254B
:101B9000642C6C6576656C3A25642C636F73743ABB
:101BA00025640A00D47800200D0000002DE9F041E2
:101BB00000BF002400254F48007A142801DCBDE84E
:101BC000F0814C48057A40894A4989890844494945
:101BD0000968091AA81EB1FBF0F000F10A04464892
:101BE000006800F4005020B30FF01CFB001B4FF402
:101BF000A571484300EB80004FEA40084FEAE870C7
:101C000008EB10500413002C00DA002404FB05F04C
:101C100040004FF47A7190FBF1F036494968081A98
:101C20003449486008464068002828DA00204860A7
:101C300025E00FF0F7FA201A4FF4A571484300EBA6
:101C400080004FEA40084FEAE87008EB1050041398
:101C5000002C00DA002404FB05F040004FF47A71F8
:101C600090FBF1F02349496808442249486008463E
:101C700040682249884202DD08461E49486000F05B
:101C800047F840F26D61884205DB6420194988738A
:101C90001B49087024E01A48007820B118480078E1
:101CA000401E1749087016480078C8B911484068A6
:101CB0001249081AC717064664234FF0000C304635
:101CC000A0FB031807FB038206FB0C270E460B4AFA
:101CD000002330463946FEF7A3FA064605498E73BF
:101CE0004FF48050034948810020888108600872C1
:101CF00000BF64E7345C002008140140C0115A01A1
:101D0000E90100200148008870470000DC590020EC
:101D10000148006870470000C00100200148807B36
:101D200070470000345C002000B5FFF7F1FF40F27F
:101D30001451884201DA012000BD0020FCE70000B8
:101D40000149087070470000C40100200149086083
:101D500070470000C0010020014908607047000082
:101D60003C080040014908607047000038340140D9
:101D700000B5024602B900BD00F03CF800F01100C9
:101D800028B116480078401C1449087002E0002071
:101D90001249087000F02EF800F0220028B1104817
:101DA0000078401C0E49087002E000200C490870C1
:101DB0000A4800780F2803DC094800780F280ADD5C
:101DC0000848007840F08000064908700020034968
:101DD00008700349087000BFCDE70000E70100204C
:101DE000E8010020BC010020014800787047000095
:101DF000D001002000200C49096801F0080131B928
:101E00000949096801F0080109B940F010000749C3
:101E1000096801F4805131B90449096801F480511D
:101E200009B940F020007047081801400808014037
:101E30000020014908707047CF01002000BFFEE775
:101E40002DE9F04F89B004460026002500200890B7
:101E500007908046814682460690059004900027B0
:101E6000039017F029FF029004F0010008B101244B
:101E700017E004F0020008B1022412E004F0800030
:101E800008B180240DE004F0080008B1082408E03F
:101E900004F0200008B1202403E004F0100000B199
:101EA000102413F085FB11F0D9FF202C02D1002063
:101EB000FFF758FF082C02D10020FFF74DFF102C30
:101EC00001D111F079FEFEF74BFF002009F02EFC46
:101ED000002004F0DBFE002009F028FC40F62B3344
:101EE000FA4AFBA1FE48009416F04DFEFC4816F09D
:101EF00013FEFCA016F010FEFEF732FF102C7BD074
:101F000006DC012C09D0022C2CD0082C75D176E0EF
:101F1000202C73D0802CF9D149E013F0A7F9F248B6
:101F20000078012807D125231A464FF4C861022002
:101F3000FEF7C2FE06E025231A464FF4C8610320CF
:101F4000FEF7BAFE00231A4619460820FEF7B4FE33
:101F500000231A4619460120FEF7AEFE1320FFF7B4
:101F600023F9A0E013F082F9E0480078012807D1B6
:101F700025231A464FF4C8610320FEF79DFE06E0B4
:101F800025231A464FF4C8610220FEF795FE002370
:101F90001A4619460820FEF78FFE00231A461946F6
:101FA0000120FEF789FE1320FFF7FEF87BE00020FA
:101FB00009F0BCFB012005901E231A464FF4C8719E
:101FC0000720FEF779FE00231A4619460820FEF77F
:101FD00073FEFFF70FFF074600231A461946082035
:101FE000FEF76AFE00231A4619460120FEF764FE3A
:101FF0001320FFF7D9F856E049E053E023E01E2311
:102000001A464FF496710720FEF756FE00231A4633
:1020100019460820FEF750FE25231A464FF4C861E2
:102020000220FEF749FE00231A4619460820FEF753
:1020300043FE00231A4619460120FEF73DFE1320F9
:10204000FFF7B2F82FE01E231A464FF496710720CF
:10205000FEF732FE00231A4619460820FEF72CFE32
:1020600025231A464FF4C8610220FEF725FE0023FF
:102070001A4619460820FEF71FFE00231A46194685
:102080000120FEF719FE1320FFF78EF80BE011F088
:10209000BBFC002211464FF4966009F04DFB13F093
:1020A00087FA00E000BF00BFF9E1FEF7F9FF06285C
:1020B0000ED006DC01287DD002287CD003287BD1FD
:1020C00086E0072879D0082878D01328F7D1E4E0F3
:1020D00013F074F8834613F07DF8834506D213F0AD
:1020E0009DF8834613F0A6F883450BD380A17C4866
:1020F00016F049FD7A4816F00FFD7AA016F00CFD97
:1021000001200690FFF776FE0746C7B30120049032
:1021100007F01100C0B1FEF723FE1E231A464FF44C
:10212000FA710720FEF7C8FD00231A461946082059
:10213000FEF7C2FD00231A4619460120FEF7BCFD3A
:102140001320FFF731F81AE007F02200B8B1FEF7CC
:1021500007FE1E231A464FF4FA710720FEF7ACFD66
:1021600000231A4619460820FEF7A6FD00231A464A
:1021700019460120FEF7A0FD1320FFF715F804F023
:1021800049FD03900398F8B101200490FEF7E8FDA3
:102190001E231A464FF4FA710720FEF78DFD002327
:1021A0001A4619460820FEF787FD00231A461946ED
:1021B000012004E01AE008E075E071E00BE0FEF7B2
:1021C0007BFD1320FEF7F0FF6EE0FFF738F86BE0C1
:1021D000FFF735F868E012F0EBFF0A2805DC13F092
:1021E00017F80A2801DCFEF721FE5DE004980128BB
:1021F00003D1002004900120069004F0010010B9E2
:1022000004F0020010B10120069045E004F08000C7
:1022100058B30598F8B100200590FFF7EBFD07468D
:10222000B7B11E231A464FF4FA710720FEF744FD9A
:1022300000231A4619460820FEF73EFD00231A46E1
:1022400019460120FEF738FD1320FEF7ADFF23E00D
:102250000120069020E0FFF7CDFD074617B10720CB
:1022600005F04AF80120069016E004F0200040B185
:1022700041F288321146002009F05EFA01200890F0
:102280000AE004F0080038B141F28832114600201B
:1022900009F052FA0120079006E0FEF7C7FD03E0BF
:1022A000FEF7CDFF00E000BF00BF04F0010010B951
:1022B00004F0020030B3FEF7F3FE022803D0FEF76D
:1022C000EFFE03284ED104F001001CE079A20108C2
:1022D0002573282564293A20256420200A0000005F
:1022E000D47800200D000000A5020020A4020020E8
:1022F00066696E69736820666F7277617264212106
:102300000A00000028E018B112F03AFF054605E087
:1023100004F0020010B112F069FF05462A4668A1D8
:102320006C4816F030FC6B4816F0F6FBAFF24C0030
:1023300016F0F2FBB5F5966F01DC0A2D11DA701C70
:1023400086B24B2E0EDD00260120069004F001001F
:1023500018B1032004F0D0FF04E0042004F0CCFF07
:1023600000E00026089840B308F101001FFA80F849
:10237000B8F1960F04DD00200890804601200690F9
:102380000DF05AFD05462A4653A1524816F0FBFBB4
:10239000504816F0C1FBAFF2B40016F0BDFB282D7B
:1023A00001DC062D0ADA701C86B2322E07DD00260B
:1023B000012004F0A1FF0120069000E0002607980C
:1023C00050B309F101001FFA80F9B9F1960F04DD4D
:1023D0000020079081460120069007F03FF905464E
:1023E0002A463DA13B4816F0CEFB3A4816F094FB36
:1023F000AFF2101016F090FB40F25460854201DC01
:10240000642D0ADA701C86B2322E07DD0026022007
:1024100004F072FF0120069000E0002604F0100096
:1024200090B30AF101001FFA80FABAF1960F03DDAA
:102430004FF0000A0120069011F0D4FA05462A4612
:102440002AA1244816F09FFB224816F065FBAFF244
:102450006C1016F061FB44F25060854201DC822D65
:1024600013DA701C86B24B2E10DD01200690002678
:1024700044F25060854202DD0E2004F03DFF822DC3
:1024800004DA0F2004F038FF00E00026069810B1AF
:102490000020069008E0142102A816F0FFFC09F0C5
:1024A000AFF805287FF401AE00BF04F015FF20B996
:1024B000012009F03BF909F0E3F909B0BDE8F08F1C
:1024C000776865656C2063757272656E743A256411
:1024D0000A000000D478002062727573682063756A
:1024E0007272656E743A25640A000000766163209A
:1024F00063757272656E743A25640A002DE9F041C5
:1025000005460E4617461C46DDF818803A46314609
:10251000284607F03DFD20603A463146284607F040
:1025200027FFC8F80000BDE8F081FEB500250020B7
:10253000029001900024441E17E0002005F03AF8B4
:10254000064601A8214602AB022200903046FFF762
:10255000D5FF019801B2029800B207F0E1FA032812
:1025600001D1012503E0601C44B2012CE5DD00BF70
:102570002846FEBD10B50021272001F08FFD002167
:10258000084612F053FF0021084612F059FF10BD13
:10259000014800787047000086000020014800785C
:1025A0007047000093000020034909680160024958
:1025B00049684160704700008800002001480078A9
:1025C00070470000920000202DE9F04F89B00646C8
:1025D0000D4600240020089004F0ECFF281A04B2F5
:1025E00005F004F8074604F0FBFF804604F0F2FF14
:1025F0008146002004F0DEFFA5EB000A002004F075
:10260000D9FF834640F60723794A7AA1CDE903A989
:10261000CDE90587CDE900500294864816F0B3FA5B
:10262000844816F079FA84A016F076FA02E0A4F550
:10263000616004B2B4F5E16FF9DA02E004F56160BB
:1026400004B214F5E16FF9DDB4F5E16F03DC40F29B
:10265000A460844205DA14F5E16F69DB77488442AF
:1026600066DCB4F5E16F33DC40F2A46084422FDB1A
:1026700073480068002814DA40F61B235C4A71A1F5
:102680006C4816F080FA6B4816F046FA6AA016F00D
:1026900043FA082008906A480068204468490860A6
:1026A00074E040F62123524A6BA1624816F06BFA9F
:1026B000604816F031FA60A016F02EFA102008904B
:1026C000A4F561605E49096808445D4908605DE001
:1026D0005B480068002814DD40F62A23444A5EA1C6
:1026E000544816F050FA534816F016FA52A016F055
:1026F00013FA10200890524800682044504908609E
:1027000044E04FF423633A4A4EA14A4816F03BFA9C
:10271000484816F001FA48A016F0FEF90820089083
:1027200004F56160464909680844454908602DE0A0
:10273000002C12DBB4F5E16F0FDC40F63A232C4A93
:1027400040A13C4816F01FFA3A4816F0E5F93AA0C5
:1027500016F0E2F90820089013E0002C11DC14F5C3
:10276000E16F0EDB40F63F23214A3BA1314816F0D2
:102770000AFA304816F0D0F92FA016F0CDF9102043
:1027800008902F48006820442D49086031463046A3
:1027900012F056FE4FF4616012F042FE4FF4616099
:1027A00012F016FE284605F073F80898082806D19E
:1027B000012012F085FD022004F0D2FA05E002208B
:1027C00012F07EFD012004F0CBFA12F059FD40F624
:1027D0005823074A25A1174816F0D5F9154816F0D1
:1027E0009BF915A016F098F909B0BDE8F08F00002C
:1027F00069A201082573282564293A416E676C6532
:10280000282564294779726F2825642944696666FA
:1028100028256429282564294269617328256429AB
:1028200054656D70282564295363616C652825649F
:10283000290A0000D47800200D0000005CF9FFFF99
:10284000C00000202573282564293A5475726E2033
:102850004C6566740A0000002573282564293A54E3
:1028600075726E2052696768740A00002573282506
:1028700064293A4163745F4D6F76655F48656164B2
:1028800020746F20436F75727365210A0000000089
:102890002DE9F3412DED028B84B00798FDF7AAFED8
:1028A00041EC180BB0EE480AF0EE680A07F08AF81F
:1028B00005460698FDF79EFE41EC180BB0EE480A5F
:1028C000F0EE680A07F07EF8064607F03FFE07467E
:1028D00007F032FE804640F6EF13254A25A1CDE9E8
:1028E0000176039500902C4816F04DF92A4816F011
:1028F00013F92AA016F010F90798FDF77BFE41ECBA
:10290000180BB0EE480AF0EE680A07F05BF80546CF
:102910000698FDF76FFE41EC180BB0EE480AF0EE9A
:10292000680A07F04FF8064607F010FE074607F062
:1029300003FE80462B463246394608F0E1FC044649
:1029400040F6FC130A4A16A11348009416F01BF92E
:10295000114816F0E1F811A016F0DEF821B2272098
:10296000FFF732FE04B0BDEC028BBDE8FC81000035
:1029700059A20108257328256429726F626F743A81
:102980002825642C2564292C7461726765743A28A3
:1029900025642C2564290A00D47800200D0000004D
:1029A0002573282564297461726765745F636F7588
:1029B0007273653A25640A0037B50446012C06D0C7
:1029C000022C0DD0032C14D0042C24D11AE007F0D3
:1029D0000BFE0299401A782801DD01203EBD1BE064
:1029E00007F002FE0299081A782801DD0120F5E7B8
:1029F00012E007F0F9FD0299081A782801DD01209C
:102A0000ECE709E007F0F0FD0299401A782801DDB3
:102A10000120E3E700E000BF00BF0020DEE770B563
:102A20000446012C06D0022C11D0032C1BD0042C00
:102A300032D124E0002004F0BDFD05460AF0FCFB85
:102A400040F68C21884201D1012070BD25E0002094
:102A500004F0B0FD05460AF0EFFBB0F5617F01D14F
:102A60000120F2E719E0002004F0A4FD05460AF079
:102A7000E3FBB0F5617F01D10120E6E70DE0002026
:102A800004F098FD05460AF0D7FB40F68C218842F9
:102A900001D10120D9E700E000BF00BF0020D4E74A
:102AA0002DE9F04F8BB04FF0010A002500260020E1
:102AB0000A900027804600244FF0010917F0FCF827
:102AC000059005F0FDFF002004F02EFD4FF49670F8
:102AD00015F022FA4FF4967015F01EFA012004F05A
:102AE00023FD4FF4967015F017FA08F0C9FE002088
:102AF000F4490870F448006800F4005008B301205D
:102B000008704FF402611E2001F05AFA00210846B5
:102B100012F08CFC0021084612F092FC322015F0D5
:102B2000FBF94FF4E161272001F0B8FA00210846D3
:102B300012F07CFC0021084612F082FC642015F0A3
:102B4000EBF907F087FDFFF729FD18B90020ADF874
:102B5000180005E006F0DEFF401C00B2ADF81800DA
:102B60000020ADF81A000120D8490870D849087033
:102B7000D8490870069808F0DFF8069808F028F998
:102B800001F010FB11F0FEF9002001F02DFB12F016
:102B900067F983467823D04AD0A10090D54815F034
:102BA000F2FFD44815F0B8FFD3A015F0B5FF09F037
:102BB000EFFD0EF087FE0AF00BF80CF075FBC14834
:102BC000007850B10020FDF7D9FF07F07FF804909E
:102BD00001F0EEFA0120FDF7D1FFE0E2BAF1000FBB
:102BE00049D0BAF1010F03D0BAF1020F21D139E077
:102BF000681CC5B23C2D34DD04F064FCD0B99123CF
:102C0000B54ABEA1BB4815F0BEFFBA4815F084FF17
:102C1000B9A015F081FF012004F086FC0025701C8E
:102C2000C6B2012E1DDD102004F066FB052008F061
:102C3000EDFCAFE204F046FC83469E23A64AB5A114
:102C40000090AC4815F09FFFAA4815F065FFAAA0B8
:102C500015F062FF4FF0000A09F0A0F8002004F020
:102C600037FC97E20021084612F0E0FB00210846FD
:102C700012F0E6FB8EE206A809F024FE804606F07C
:102C8000FFFCB8F1000F7DD1012004F021FCFFF71B
:102C90007FFC01280CD107F019F8062104900BF0F5
:102CA00046F828B1FFF766FC052008F0AFFC71E29A
:102CB00007F036FC0146049001200AF08DFD8146A4
:102CC000002004F005FCFFF763FC02280DD1C223AD
:102CD000814A98A1874815F056FF864815F01CFFD9
:102CE00085A015F019FF4FF00009B9F1000F2AD1A6
:102CF000FFF74EFC032800D0E7B1CA23764A98A11B
:102D00007C4815F040FF7B4815F006FF7AA015F0CF
:102D100003FF3A469DA1774815F035FF754815F039
:102D2000FBFE75A015F0F8FEFFF724FC052008F067
:102D30006DFC2FE2032001F057FA0AF0B1F80BF016
:102D400077F8012726E2B9F1020F73D1DD23624A39
:102D500094A1684815F017FF664815F0DDFE66A0DF
:102D600015F0DAFE06F068FFDE235B4A96A10090BC
:102D7000604815F008FF5F4815F0CEFE5EA015F024
:102D8000CBFE00E064E009F02BFBDF23524A96A162
:102D90000090584815F0F7FE564815F0BDFE56A0B5
:102DA00015F0BAFE09F01CFB642100FB01FB06F0E4
:102DB00043FFBBFBF0F0642811D9FFF7E9FB0128C2
:102DC00005D1FFF7D7FB052008F020FC06E00AF04C
:102DD00067F80BF02DF8012001F006FADAE1F32391
:102DE0003D4A89A1434815F0CEFE424815F094FEB5
:102DF00041A015F091FE06F03BFE09F0C9FC4FF032
:102E0000010802208DF81C0007F08AFB069020467E
:102E100001F014FA0446012001F038FA07F080FBB3
:102E200002222146049003F039FC002001F02EFA22
:102E3000B0E1FFE74FF48373274A79A12D4815F0DD
:102E4000A2FE2C4815F068FE2BA015F065FEA1E14E
:102E5000B8F1000F34D0FFF79BFB012801D18DF8AA
:102E60001C009DF81C0001282BD1012101A809F0AC
:102E7000CFFDDDE90101CDE90301099007F050FB29
:102E800008900024FFF784FB98B9BDF92400BDF930
:102E9000201088420CD0BDF92210BDF9260008F0A0
:102EA000ADFA042804DADDE908100AF071FA0446E4
:102EB000D6E009F07BFC83464FF49273064AC3E0E8
:102EC00067E1EFE08500002008140140D8000020F1
:102ED0008100002082000020E7A101082573282539
:102EE00064293A57616C6C20414443203D2025649D
:102EF0000A000000D47800200D000000257328256A
:102F000064293A4E6F204779726F204461746121C1
:102F10000A0000002573282564293A4772796F5FFB
:102F2000476574557064617465466C6167203D2027
:102F300025640A002573282564293A434D5F4765B7
:102F4000744261636B546F5374617274506F696E35
:102F500074466C616728293D3D32200A000000005C
:102F60002573282564293A434D5F476574426163A0
:102F70006B546F5374617274506F696E74466C61F8
:102F80006728293D3D33200A0000000077616C6C02
:102F90005F61726F756E645F66696E6973683A250A
:102FA000640000002573282564293A4E6F20446987
:102FB00072656374205761792063616E2061636379
:102FC000657373200A0000002573282564293A4D93
:102FD00061705F47657443656C6C416372656167DE
:102FE000653D2564200A00002573282564293A5090
:102FF0006174684C696E655F4765744163726561B1
:1030000067653D2564200A002573282564293A72E6
:103010006F626F742074726170706564210A0000C1
:103020002573282564293A53686F72746573742078
:103030005061746820466F756E642C20676F20673E
:103040006F20676F21200A005AA10090614815F097
:103050009AFD604815F060FDAFF2641015F05CFD5C
:103060006CB107F05DFA01222146049003F016FBD3
:10307000092803D109F08CFB01F062FB8AE00020F3
:10308000554908709DF81C10069800F0B9F80828FA
:1030900004D109F07DFB01F053FB7BE000204E4999
:1030A000087076E007F048FABDF91810884264D13C
:1030B000BDF91A00BDF9181040F24313474ACDE993
:1030C000001047A1434815F05EFD424815F024FD6D
:1030D000AFF2DC1015F020FD00203F490870069883
:1030E0000AF039F80446BDF91A10BDF9180006F0C7
:1030F00017FD50B92146069801F0D6FA09F048FBB1
:10310000012006990AF068FB10E009F041FB07F086
:1031100007FA0146049000200AF05EFB814606A8EB
:1031200009F0D0FB2146069801F0BEFA09F03EFBFB
:10313000012805DB09F03AFB401EC0B20A9001E00D
:1031400000200A909DF81C10069800F059F80828F5
:103150000FD109F02BFB0A99884206DD07F0E0F950
:1031600001222146049003F099FA09F011FB01F0C5
:10317000E7FA0020184908700CE09DF81C1006982A
:1031800000F03EF8082803D109F002FB01F0D8FA5C
:1031900000E000BF00BF322105A815F07FFE08F057
:1031A0002FFA05287FF41AAD002004F0BDF90BB00A
:1031B000BDE8F08F2573282564293A506174684C66
:1031C0006973745F476574436E7428293D202564D4
:1031D0000A000000D478002083000020E7A1010845
:1031E0002573282564293A706174686C6973745F6B
:1031F000706F696E743A282564202564290A0000DE
:1032000013B584B00C466846049906F0B7FBDDE9B7
:103210000001CDE90201BDF91200BDF9101040F224
:103220008913134ACDE9001012A1194815F0ABFC1F
:10323000174815F071FC17A015F06EFCDDE90201CE
:103240004FF4C5730A4ACDE9000113A1104815F0E7
:103250009AFC0F4815F060FC0EA015F05DFC2346AB
:103260000022DDE9020100F025F806B010BD0000E3
:10327000F5A101082573282564293A63656C6C2043
:1032800058203A20256420593A2025640A0000007D
:10329000D47800200D0000002573282564293A63A6
:1032A0006F756E742058203A20256420593A2025E5
:1032B000640A00002DE9FF4F2DED028B99B098466E
:1032C0000020189017908146169015908246149011
:1032D00013900026129011900024002510900F905A
:1032E0000E900027DDE91B01CDE90C0100200B90B9
:1032F0000A9016F0E1FC089009F0CAFF8346DDE968
:103300001B014FF4D673E44A8DE80308E3A1EC48AF
:1033100015F039FCEA4815F0FFFBEAA015F0FCFBBC
:10332000FDF71EFDDDE91B0100F0B6FF002000F0F7
:103330007FFFDDE91B01FFF7ABFA1020FDF734FF3B
:1033400001200FF069FE012011F0BEFD00BF0BF05F
:10335000ABFFFDE307F0E4F80990FDF7A1FE0828B4
:103360007ED006DC01287CD0062809D0072879D138
:103370007CE3102807D0112875D01328F7D1C0E3BB
:10338000FDF75DFFC1E3781CC7B2022F6CDD00279B
:10339000002004F00FF9834604F074FA59460790B0
:1033A00008F02CF80546B5F5E16F02DDC5F5616062
:1033B00000E028460546284607F070FF0546B5F5AB
:1033C000AF7F2BDA002004F0F5F8834604F05AFAB8
:1033D000079040F2C913B04ABBA1CDE901B50090F6
:1033E000B74815F0D0FBB64815F096FBB5A015F020
:1033F00093FB4FF4E573A84ABCA1B148CDF8009007
:1034000015F0C1FBAE4815F087FBAEA015F084FBAC
:10341000FDF7A6FC1120FDF7C7FE76E3272108463D
:1034200012F00EF80FF0E8FD20B908F05BF900F09B
:10343000030068B340F2DF13974AB4A1A04815F027
:10344000A2FB9F4815F068FB9EA015F065FB0FF0EE
:10345000D9FDFDF785FC34231A464FF4967104E03C
:10346000EBE236E250E331E02FE00620FDF724FCEA
:1034700000231A4619460820FDF71EFC00231A46B1
:1034800019460120FDF718FC1320FDF78DFE3CE3E3
:1034900009F101001FFA80F9B9F57A7F15DD40F2D4
:1034A000EB137D4A9EA1864815F06DFB844815F00C
:1034B00033FB84A015F030FB09201890102003F096
:1034C0001BFF052008F0A2F81FE31EE3781CC7B21B
:1034D0000BF0EAFE002F7DDD002700200F9006A8EC
:1034E00007F03EF8DDE91B23DDE9060108F06DF881
:1034F0000446204607F0D2FE962801DB012000E0BA
:1035000000200B9007F00CF80790DDE91B0107F095
:1035100007FA0690079907F0EFFF1090DDE91B010D
:103520000AF020FC00287CD009F040F9002879D06E
:103530001C98FDF75FF841EC180BB0EE480AF0EE6E
:10354000680A06F03FFA83461B98FDF753F841ECF2
:10355000180BB0EE480AF0EE680A06F033FA594646
:10356000079007F063FC0CA809F026F900200A90E8
:10357000DDE90C01CDE91B0106A806F0F1FFDDE94C
:103580001B23DDE9060108F020F8834607F086FEDC
:1035900004461C98FDF72EF841EC180BB0EE480AD3
:1035A000F0EE680A06F00EFA83461B98FDF722F843
:1035B00041EC180BB0EE480AF0EE680A06F002FA89
:1035C000079006F0C3FF069006F0B6FF0590DDE910
:1035D000060100E07CE1CDE903B4CDE901010598E5
:1035E0004FF407732C4A53A10090354815F0CBFADD
:1035F000334815F091FA33A015F08EFA204607F003
:103600004DFEB0F5AF6F29DDDDE91B0107F088F94C
:10361000079006F085FF0690079907F004FFE8B1D0
:1036200001E038E01BE04FF408731B4A51A1244825
:10363000009415F0A8FA224815F06EFA21A015F0B2
:103640006BFA1A200CF00AFCFDF7B4FDDDE91B0152
:10365000FDF766FB1320FDF7A7FD56E279E620464D
:1036600007F01CFEB0F5FA7F14DDDDE91B0107F061
:1036700057F9079006F054FF0690079907F092FF5C
:10368000002808D0002003F095FF834640F24F2326
:10369000014A87E098E0C3E002A2010825732825CB
:1036A00064293A5461726765742825642C2564295D
:1036B0002048656164696E67282564290A00000056
:1036C000D47800200D0000002573282564293A4194
:1036D0006E676C653A202564094779726F3A202538
:1036E0006409446966663A2025640A002573282522
:1036F00064293A4779726F204572726F722074693B
:103700006D6572203D202564200A00002573282560
:1037100064293A5475726E20536C6970210A000056
:103720002573282564293A4779726F204572726F94
:1037300072210A002573282564293A637572206373
:10374000656C6C3A2825642C2564292C67657420E7
:103750006E65787420706F696E743A2825642C2524
:1037600064292C6469666620616E676C653A25641D
:103770000A0000002573282564293A726F74617469
:103780006520616E676C6520746F6F206C61726775
:103790006520746F2073746F703131313A25640A7B
:1037A00000000000EEA1CDE90004FD4815F0EBF9A2
:1037B000FB4815F0B1F9AFF2F40015F0ADF9FDF7E3
:1037C000F9FC09201790A0E106A806F0C9FEDDE982
:1037D0001B23DDE9060109F063FE90B140F2572397
:1037E000F04AF1A1EE4815F0CEF9ED4815F094F944
:1037F000AFF2301015F090F9FDF7DCFC09201790BE
:1038000083E111F0D5FC16280ADD11F001FD162820
:1038100006DD204607F042FDC82801DA01200F909E
:1038200005F05CF9B8B11C200CF018FB0BF03CFD66
:10383000802000F08BFD09201790FDF791FA0023FE
:103840001A4619460120FDF737FA1320FDF7ACFCA4
:1038500008F09EFF59E107F087F8A0B140F272230B
:10386000D04AD9A1CE4815F08EF9CD4815F054F9BB
:10387000AFF2B01015F050F909201790FDF77EFA5D
:1038800008F086FF41E10B9878B9109802280CDD0A
:10389000002003F08FFE0FFA80FB5A46404609993C
:1038A00009F0D8FD08B101200F900B9820B908F05D
:1038B000D7F908B101200F9011AB12AA21B20F98CD
:1038C00011F01AFB119AD1B2129AD0B211F0B8FDD0
:1038D0001BE10E98012820D100200E9003F09AF9E8
:1038E0000F2814D140F25933AE4ABEA1AC4815F0AE
:1038F0004AF9AB4815F010F9AFF2382015F00CF981
:103900000C2003F0F9FC052007F080FEFDE0032108
:10391000002000F0CBFC0820179003F07BF9F8B1F1
:10392000B5480078401CB449087008460278B3A135
:103930009B4815F028F99A4815F0EEF8AFF27C2074
:1039400015F0EAF8AC4800780A280CDB0020AA49F8
:103950000870052007F05AFE062003F0CDFCD4E0E5
:103960000020A5490870179840F276338D4AA8A127
:1039700000908B4815F007F9894815F0CDF8AFF2A3
:10398000BC2015F0C9F81798092817D1189006F02F
:103990002BFE834606F012FE079040F27A33814AEE
:1039A000A2A1CDE9000B7E4815F0EDF87C4815F09A
:1039B000B3F8AFF2F02015F0AFF8A6E0179808289A
:1039C00030D118904FF46073764AA6A17448CDF8B0
:1039D00000A015F0D8F8724815F09EF8AFF21C3030
:1039E00015F09AF8BAF1000F03D05146002000F00C
:1039F0005DFC149810B1149800F0A8FC8EB1012E53
:103A000003D11121002000F051FC022E03D122210C
:103A1000002000F04BFC032E03D13321002000F0E6
:103A200045FC72E0FDF79CF91120FDF7BDFB342247
:103A3000DDE91B01FDF790FB67E011F0B9FB0A28F7
:103A400013DC11F0E5FB0A280FDC40F29233554AF3
:103A50008DA1534815F097F8514815F05DF8AFF275
:103A60009C3015F059F8FDF7E1F94EE011F0A6FB96
:103A7000834611F0AFFB834506D211F0CFFB83469E
:103A800011F0D8FB83453BD303F0C4F888B303F0AF
:103A9000C1F80F280ED184A1414815F074F84048B0
:103AA00015F03AF8AFF2E43015F036F80C2003F0D8
:103AB00023FC2AE05048027850A1394815F063F8F9
:103AC000374815F029F8AFF2044015F025F84A48B8
:103AD0000078401C48490870084600780A280CDB2A
:103AE00000200870052007F091FD062003F004FC7B
:103AF0000BE0FFE70020404908701320FDF754FB5E
:103B000003E0FDF793F900E000BF00BFFDF7C8FA3E
:103B1000072823D0FEF76EF915901598E8B1DDF867
:103B200054A0FDF7BDFA102819D1FDF719F91E238D
:103B30001A46C8210720FDF7BFF800231A46194688
:103B40000820FDF7B9F827231A460021102000E0CD
:103B5000B8E1FDF7B1F81320B4E0D2E037E1B4E00A
:103B60002573282564293A7265616368206C617346
:103B70007420706F696E74202C73746F7020697478
:103B80002C726F626F742068656164696E673A2594
:103B9000642C726F746174653A25640A0000000039
:103BA000D478002002A201082573282564292C74EA
:103BB000617267657420706F736974696F6E2061DC
:103BC0007272697665640A002573282564293A4D66
:103BD00061705F5265616368426F756E646172798E
:103BE000210A00002573282564293A5069636B2057
:103BF0007570210A0000000098000020636C69665F
:103C0000665F747269675F636E743A25640A0000C8
:103C10002573282564293A4172726976655F666C5E
:103C20006167203D2564210A0000000025732825D6
:103C300064293A4172726976655F666C6167203DFE
:103C40003D204D545F4152524956454420726F62A7
:103C50006F74706F73636F756E742825642C2564A0
:103C600029210A002573282564293A62756D70653B
:103C7000725F747269676765725F627566666572A6
:103C8000203D2564210A00002573282564293A4433
:103C90006563656C65726174696F6E2046696E69F3
:103CA0007368656421210A006D6F76652062616327
:103CB0006B202C636C6966665F616C6C5F74726903
:103CC000670A0000FDF770FA1BE007F0A1FF8346CA
:103CD00000F03CFB9620FDF72FF85146002000F045
:103CE000E5FA082017904FF475738A4A8AA1904824
:103CF00014F049FF8E4814F00FFFAFF2386014F053
:103D00000BFFDDE91B010AF02DF828B111F05CFA78
:103D1000162801DD11F088FA07F0A2FFB0B1FDF717
:103D2000BFF9102812D011F04FFA16280EDD11F04D
:103D30007BFA16280ADD1621084611F081FB08F0EF
:103D40006DF818B10F21084611F07AFB02F062FFFE
:103D500013901398D8B30CF0DDF91398B8B31398F7
:103D60000F2808D10E9890BB01200E904FF4FA70E6
:103D7000FCF7E2FF2BE0FDF793F911280BD0FDF7DC
:103D80008FF9102807D0FDF78BF9082803D0FDF72D
:103D900087F906281BD14FF41670FCF7CDFF0321DD
:103DA000002000F083FA08201790FDF779F9834688
:103DB00040F20943574A5FA100905D4814F0E3FECA
:103DC0005B4814F0A9FEAFF2047014F0A5FE07F0F2
:103DD00017FC18B107F014FC0E281AD15D480BF03F
:103DE00051FAB0B1012000F0FFF909201790FCF75B
:103DF000C5FF0BF053FA4FF48363464A56A14C4873
:103E000014F0C1FE4A4814F087FEAFF2487014F077
:103E100083FE07F067FC1690169868B107F080FCE7
:103E20001698FEF70DF8082018901698402803D130
:103E30000321002000F03AFA03F04EFA38B303F001
:103E40004BFA0B2824D107F0DBFB042803D1052013
:103E500007F0DCFB3BE0FDF723F911282AD1B8F18C
:103E6000010F27D0012000F0BFF909201790FCF7BF
:103E700085FF40F23343274A3DA12D4814F083FECD
:103E80002B4814F049FEAFF2C47014F045FE11E067
:103E90004FF487631F4A3BA1254814F074FE244861
:103EA00014F03AFEAFF2E47014F036FE052007F08D
:103EB000ADFB0CE0189800B109E00A2108A814F045
:103EC000EDFF00BF07F09CFB05287FF443AA00BF6D
:103ED00040F246430F4A31A1154814F054FE1448ED
:103EE00014F01AFEAFF6240014F016FEFEF750FB95
:103EF000012805D108F0D4FF09F09AFF08F048FC2A
:103F0000002010F0E1FF189819B0BDEC028B04B04E
:103F1000BDE8F08F02A201082573282564293A42E2
:103F2000756D706572204576656E742121210A00D9
:103F3000D47800202573282564293A436C69666685
:103F4000204576656E74212121206163743A2564D1
:103F50000A000000B648FF002573282564293A723C
:103F6000656D6F746520686F6D65200A0000000044
:103F70002573282564293A57617465722074616E2F
:103F80006B210A002573282564293A4572726F72E5
:103F90005F476574436F646528290A0025732825E7
:103FA00064293A4A756D70206F666620434D5F4DF7
:103FB0006F7665546F506F736974696F6E0A0A008B
:103FC0002DE9F04104460D4615F076FE0646132015
:103FD000FDF7EAF8082011F073F92146204611F0A8
:103FE0002FFA11F04DF92946284611F033FA40F620
:103FF0009F53204A20A1224814F0C5FD204814F008
:104000008BFD20A014F088FD2DE015F055FE41F247
:104010008831314488420FD340F6A553154A1AA17E
:10402000174814F0B0FD164814F076FD15A014F0F2
:1040300073FD0120BDE8F08111F0CCF8074611F0C6
:10404000FFF828B911F0F6F8074611F023F900B18E
:104050000DE011F089F8082802D0082011F030F99D
:10406000142014F0D5FE07F0CBFA0028CDD000BF05
:104070000020DFE78CA201082573282564290A00A7
:10408000D47800200D0000002573282564292C74A5
:10409000696D65206F75740A000000002DE9F04716
:1040A00005460E4615F008FE8046002430B203F0A7
:1040B000EFFB1320FDF778F8082011F001F92946ED
:1040C000284611F0BDF9FDF723FE074600EBD77037
:1040D0004010A7EB400018B9012011F0F1F802E000
:1040E000022011F0EDF840F6C653244A24A12648D8
:1040F00014F049FD244814F00FFD24A014F00CFD29
:1041000034E0002003F056FA074603F0BBFB81467B
:10411000394607F073F9044615F0CEFD41F28831B7
:10412000414488420FD340F6CD53144A18A1164893
:1041300014F029FD144814F0EFFC14A014F0ECFC6A
:104140000120BDE8F087142C00DA13E0B4F5C87F35
:1041500009DA142094FBF0F4062C00DA0624E1B20C
:10416000E0B211F06DF9142014F052FE07F048FA95
:104170000028C6D000BF0020E3E7000099A2010894
:104180002573282564290A00D47800200D0000003A
:104190002573282564292C74696D65206F75740A50
:1041A00000000000002001490870704794000020C2
:1041B00038B5002500240520ADF800000020ADF83A
:1041C0000200051F0DE06FF0030406E06A4221467D
:1041D000009805F02BFA601C44B2042CF6DB681C36
:1041E00045B2042DEFDB38BD01490870704700006F
:1041F000860000207CB504460D46002003F0DAF965
:1042000006B206F08DF92B4622463146009005F0A5
:1042100087FD0190BDF90610BDF90400022206F0E9
:10422000FBFC7CBD01490870704700009300002032
:1042300001490870704700009500002070B50446E1
:104240000025002003F0B6F9064608F0F5FF48B156
:10425000B0F5617F08D0B0F5E16F0BD0A0F68C20EF
:1042600080B909E002250EE0022C01D1022500E010
:10427000042508E0042506E0042C01D1042500E013
:10428000022500E000BF00BF284670BD014908704C
:10429000704700009000002003B5034900980860B3
:1042A000019848600CBD000088000020F8B5064663
:1042B0000C4640F6BA131B4A1BA12248009414F086
:1042C00062FC204814F028FC1FA014F025FC04F028
:1042D000220070B104F0110058B14FF0FF3505E035
:1042E00028B20221FFF786FF681C05B2012DF7DD19
:1042F00016E004F0110040B102210120FFF77AFF1F
:1043000002210020FFF776FF0AE004F0220038B116
:1043100002210020FFF76EFF0221C81EFFF76AFF8F
:10432000F8BD000046A201082573282564293A42F9
:10433000756D706572205374617465203D2025642D
:10434000200A0000D47800200D00000070B505465A
:1043500005F0800050B14FF0FF3405E02046022107
:10436000FFF748FF601C44B2012CF7DD05F00200A6
:1043700018B102210120FFF73DFF05F0200018B120
:104380000221C81EFFF736FF70BDFEB50E460024A1
:10439000002003F00FF90546012E06D0022E24D08E
:1043A000032E43D0042E7ED160E000241AE001A841
:1043B00022460090A8B202AB0221FEF79FF802232A
:1043C000019802B2029801B2002006F003FB38B94E
:1043D0000222019801B20298401C00B206F01CFCB7
:1043E000601CC4B2022CE2DB64E000241BE001A8E4
:1043F00022460090A8B202AB6FF00101FEF77EF8F2
:104400000223019802B2029801B2002006F0E2FAFB
:1044100038B90222019801B20298401C00B206F09D
:10442000FBFB601CC4B2022CE1DB43E000241AE079
:1044300001A822460090A8B202AB0221FEF75EF866
:104440000223019802B2029801B2002006F0C2FADB
:1044500038B90299491E08B20222019909B206F040
:10446000DBFB601CC4B2022CE2DB23E000241DE075
:1044700001A822460090A8B202AB6FF00101FEF73E
:104480003DF80223019802B2029801B2002006F022
:10449000A1FA38B90299491E08B20222019909B25B
:1044A00006F0BAFB00E004E0601CC4B2022CDFDBC3
:1044B00000E000BF00BFFEBD2DE9F04F2DED0A8BDF
:1044C00083B004460D461746984600263FB9B8F11A
:1044D000000F04D103B0BDEC0A8BBDE8F08FAC42F5
:1044E00011DD601BB0F5E16F0DDD601900F5616055
:1044F000C0F34F004FF4616190FBF1F201FB120039
:104500000FFA80F916E0A54211DD281BB0F5E16F26
:104510000DDD601900F56160C0F34F004FF461617B
:1045200090FBF1F201FB12000FFA80F902E0601932
:10453000C0F34E0910F054FEA0EB080A10F01AFE6A
:10454000A0EB070B5146584610F0B0FE07EB0800F1
:10455000FCF750F841EC180B9FED460B53EC102B79
:1045600051EC180BFBF7D7FF41EC180B4846FCF752
:1045700041F841EC1A0B0A20B0EE4A0AF0EE6A0A42
:1045800006F018FFB0EE409AF0EE609AB0EE490ADD
:10459000F0EE690A11F094FDB0EE40CAF0EE60CA88
:1045A00053EC182B51EC1C0BFBF743FF41EC1A0B9F
:1045B000B0EE490AF0EE690A11F0AEFCB0EE40CA66
:1045C000F0EE60CA53EC182B51EC1C0BFBF731FFDB
:1045D00041EC1B0BB0EE4A1AF0EE6A1AB0EE4B0A31
:1045E000F0EE6B0A06F074F901263DE001A83146B1
:1045F000B0EE490AF0EE690A02AB002200902046B4
:1046000005F09EFD0122019801B2029800B206F069
:1046100003FB3EBB019801B2029800B205F064FBB7
:1046200001281FD002F0FEFEE0B1002002F0C2FF20
:10463000824608F001FE40B1002002F0BBFF824636
:1046400008F0FAFDB0F5E16F0CD101230022DDE99D
:10465000011013F053F90122019801B2029800B23F
:10466000FCF7B0F9701E46B2B6F1FF3FBEDA00BFEC
:1046700030E7000000000000000000403EB50546A5
:10468000002002F097FF044601A802AB0022911E11
:1046900000902046FDF732FF0222019801B20298F5
:1046A00000B206F0B9FA3EBD33B583B00D46002422
:1046B000BDF90E00BDF90C1040F69413144ACDE973
:1046C000001014A11C4814F05EFA1B4814F024FAE0
:1046D0001AA014F021FA012D08D0022D04D0032DC8
:1046E00003D0042D0FD100BF00BF00BF4FF0FF3437
:1046F00006E021460222039804F098FF601C44B2B1
:10470000022CF6DB00E000BF00BF05B030BD0000AA
:1047100034A201082573282564293A6E6F7720702A
:104720006F696E7426262626262626263A282564B4
:104730002C202564290A0000D47800200D000000F8
:1047400070470346002070471FB5AEB000202D9083
:104750002C902B902A9029902890C82027904FF4D5
:104760009670269024A805F0FBFE012022900020E0
:10477000219020901F901E901D901C901B9005F082
:10478000CFFE199000201890179016901590139056
:1047900014901290119008F003FD299000201090C1
:1047A00005F0BEFE04900BF047FEC0B20F90002053
:1047B0000E900D900C9001200B9000200A90099013
:1047C00008900790069015F077FA0590FD4800785C
:1047D00060B10020FB490870FB490860FB49086094
:1047E000FB490870FB490870FB490870002002F083
:1047F000E1FE179008F04CFD0490DDE92E1240F226
:104800009443CDE900120290F44AF5A1FE4814F059
:10481000BAF9FD4814F080F9FCA014F07DF902F01B
:10482000F9F968B1FAA1F84814F0ADF9F64814F0B6
:1048300073F9F6A014F070F91B98401CC0B21B90DD
:10484000DDE92E0106F06CF81A904FF44870F84933
:104850000860309840F29D43E04AF6A10090EA4893
:1048600014F091F9E84814F057F9E8A014F054F95D
:1048700006F0B4FB002010F027FBFCF771FA31982A
:10488000012805D03198032802D03198042802D19C
:1048900001200C9014E03198022811D1FDF778FE28
:1048A00001280DD1CC480078401CCB49087008463F
:1048B0000078032804DB00200870052006F0A6FE1F
:1048C00000231A4619460820FCF7F6F925231A4654
:1048D00040F6E8010C20FCF7EFF925231A46DA49E7
:1048E0000620FCF7E9F91320FCF75EFCD7480078B6
:1048F00020B1FCF735FA1020FCF756FC06F06EFBF1
:104900000AF0D2FC01F0FFBDFCF7CAFB14287BD2F1
:10491000DFE810F07A0046030D01FF007A007A000C
:10492000DE001B01E1007A007A007A0007027A00BB
:104930007A00040214007A007A0043030898401CAD
:10494000C0B20890089802287EDD0020089002F08E
:1049500031FE049002F096FF0390049906F04EFD9C
:1049600006900698B0F5E16F03DD0698C0F561602A
:1049700000E006980690069806F090FC06900698CF
:104980000A2842DA002002F015FE049002F07AFFB5
:104990000390DDE90312069840F2DF43CDE90012EF
:1049A00002908E4AAAA1984814F0EDF8964814F0A7
:1049B000B3F896A014F0B0F807984FF49C63874AB8
:1049C000ACA10090904814F0DEF88F4814F0A4F8E1
:1049D0008EA014F0A1F8FCF7C3F900231A4619467B
:1049E0000820FCF769F925231A464FF416710C20AC
:1049F000FCF762F925231A4693490620FCF75CF977
:104A00001320FCF7D1FBC7E28DE30698C82813DA20
:104A10000A21069890FBF1F006900698062801DA24
:104A2000062006900698C0B2049010F0F3FC069899
:104A3000C0B2049010F0C6FC0EF0DEFA48B340F2AB
:104A4000F143664A93A100E041E06F4814F09BF8FF
:104A50006D4814F061F86DA014F05EF80EF0D2FA13
:104A6000FCF77EF934231A464FF496710620FCF7C2
:104A700023F900231A4619460820FCF71DF90023E4
:104A80001A4619460120FCF717F91320FCF78CFB96
:104A9000B9E70798401C80B207900798B0F5FA7FF5
:104AA00015DD40F2FD434D4A7FA1574814F06BF8E5
:104AB000554814F031F855A014F02EF809202D9027
:104AC000102002F019FC052006F0A0FDE2E3E1E36E
:104AD000FCF7B5FBDEE310F06BFB0A2818DC10F0E6
:104AE00097FB0A2814DC2C9809280FD140F20B53AD
:104AF0003A4A72A1444814F046F8434814F00CF8BE
:104B000042A014F009F809202D90C3E3FCF78EF9B8
:104B1000C0E3FDF76FF9FCF792FB38B10C9828B1B0
:104B200000200C9007F0CAF81D9000BFB2E3FDF71B
:104B300061F9FCF784FB38B10C9828B100200C9087
:104B400007F0BCF81D9000BFA4E310F037FB04464B
:104B500010F040FB844206D210F060FB044610F0D7
:104B600069FB84422BD302F055F838B302F052F8B7
:104B70000F280DD157A1244814F005F8224813F04E
:104B8000CBFF22A013F0C8FF0C2002F0B5FB81E39D
:104B900057A11D481B9A13F0F6FF1B4813F0BCFFEA
:104BA0001AA013F0B9FF1B98401CC0B21B901B98B1
:104BB0000A2805DB00201B900520A3E0A8E0ACE05C
:104BC000A8E0000082000020B4000020B80000200F
:104BD000BC000020BD000020BE00002021A2010872
:104BE0002573282564293A73746172745F636E7447
:104BF0002825642C2564292048656164696E672036
:104C00003A202564200A0000D47800200D0000001E
:104C1000636C69666620747269676765722077687D
:104C2000656E2073746174696321210A00000000BD
:104C3000B00000202573282564293A446972203D7C
:104C4000202564200A000000FEFFFF1F83000020D3
:104C50002573282564293A416E676C653A202564DE
:104C6000094779726F3A20256409446966663A20DB
:104C700025640A002573282564293A4779726F2034
:104C80004572726F722074696D6572203D202564D3
:104C9000200A00002573282564293A5475726E2075
:104CA000536C6970210A00002573282564293A474E
:104CB00079726F204572726F72210A002573282560
:104CC00064293A617272697665645F666C61673106
:104CD00020210A006D6F7665206261636B202C6372
:104CE0006C6966665F616C6C5F747269670A00006C
:104CF000636C6966665F747269675F636E743A2598
:104D0000640A000006F082FC062002F0F5FAC1E217
:104D100000201B901320FCF747FABBE2FCF78FFA48
:104D2000B8E2FCF78CFA40B9FDF764F818B14FF41B
:104D3000C870279001E0C8202790319801287CD1C5
:104D4000DDE924123098FDF737FE2890289890B1BD
:104D50004FF4B463F44AF5A1FD4813F014FFFC4886
:104D600013F0DAFEAFF25C1013F0D6FE3098FCF7C9
:104D700059F90A202C9005F037FC0490259801463B
:104D80000390049806F03AFBB0F5BE6F55DD3098FD
:104D9000FDF745FE2890289801287CD140F2AB53BE
:104DA000E14AECA1EA4813F0EEFEE94813F0B4FE44
:104DB000AFF2A81013F0B0FE2998E8BB05F0C6FBCF
:104DC000049005F0B9FB801C03900246EAA1E0487C
:104DD000049B13F0D8FEDE4813F09EFEAFF2D41011
:104DE00013F09AFE05F0B2FB401E00B2049005F0ED
:104DF000A3FB801C00B20223039001460020049A0A
:104E000005F0E8FD05F0A2FB049005F095FB801C81
:104E100000B20223039001460020049A05F0DAFD57
:104E200005F094FB401C00B2049005F085FB801C4B
:104E300000B20223039001E006E0A8E00146002052
:104E4000049A05F0C7FD47E02998B0F5E16F43D11A
:104E500005F07CFB049005F06FFB801E039002467A
:104E6000CAA1BB48049B13F08EFEB94813F054FE50
:104E7000AFF2682013F050FE05F068FB401E00B250
:104E8000049005F059FB801E00B2022303900146F6
:104E90000020049A00E033E005F09CFD05F056FB8D
:104EA000049005F049FB801E00B2022303900146E6
:104EB0000020049A05F08EFD05F048FB401C00B26E
:104EC000049005F039FB801E00B2022303900146D6
:104ED0000020049A05F07EFD3098FCF7A3F80A2024
:104EE0002C9040F2BC53904AADA1994813F04BFE70
:104EF000974813F011FEAFF2EC2013F00DFE4BE0DB
:104F000005F072FB0490259801460390049808F080
:104F1000FFFEE0B340F2C253834AACA18C4813F0C9
:104F200032FE8B4813F0F8FDAFF2203013F0F4FDA1
:104F3000299860B905F00AFB049005F0FDFA801C81
:104F400000B202220390049905F066FE0FE0299852
:104F5000B0F5E16F0BD105F0F9FA049005F0ECFA29
:104F6000801E00B202220390049905F055FE30988D
:104F7000FCF758F80A202C9040F2CD536A4A9BA1C6
:104F8000734813F000FE724813F0C6FD00E003E022
:104F9000AFF2883013F0C0FD7CE1FBF747FF79E109
:104FA000109801283DD10020109001F033FE0F2809
:104FB00014D140F2DF535C4A97A1654813F0E3FD3A
:104FC000634813F0A9FDAFF2BC3013F0A5FD0C202F
:104FD00002F092F9052006F019FB5BE1FBF7C0FE39
:104FE0001E231A464FF4C8710720FBF765FE309860
:104FF000032802D03098012807D125231A464FF400
:1050000061710320FBF758FE06E025231A464FF492
:1050100061710220FBF750FE4FF4C8710820FCF7C5
:1050200015F8099800287DD001F0F4FDE0B1AFF249
:10503000403147481B9A13F0A6FD454813F06CFD1C
:10504000AFF2384013F068FD1B98401CC0B21B90B3
:105050001B980A280ADB00201B90052006F0D6FAD0
:10506000062002F049F915E100201B90099801285B
:105070002AD1FBF775FE1F9800F0020038B12523F6
:105080001A4640F246510320FBF716FE16E01F9821
:1050900000F0030038B125231A464FF46171032054
:1050A000FBF70AFE0AE01F9800F0010030B125234B
:1050B0001A464FF4E1710320FBF7FEFD4FF4C8716F
:1050C0000820FBF7C3FF2CE00998022829D1FBF741
:1050D00047FE1F9800F0010038B125231A4640F220
:1050E00046510220FBF7E8FD16E01F9800F0030090
:1050F00038B125231A464FF461710220FBF7DCFD1D
:105100000AE01F9800F0020030B125231A464FF440
:10511000E1710220FBF7D0FD4FF4C8710820FBF7C6
:1051200095FF83E085E0B1E021A2010825732825E1
:1051300064293A486176652052657475726E2074F0
:105140006F2073616D65206C616E65210A0000003F
:10515000D47800202573282564293A43726F73732D
:10516000696E6720746F20746172676574206C616A
:105170006E65210A00000000686868686868683A1F
:105180002825642C2564290A000000006161616102
:105190006161613A2825642C2564290A0000000019
:1051A0002573282564293A617272697665645F66A1
:1051B0006C6167203D204D545F48414C464152523E
:1051C000495645443232322121210A0025732825CF
:1051D00064293A43726F7373696E67206F766572E4
:1051E00020312F32206C616E65210A00257328253D
:1051F00064293A617272697665645F666C616720E2
:105200003D204D545F48414C464152524956454419
:105210003333332121210A002573282564293A508C
:1052200069636B207570210A00000000002009905E
:1052300030E02C980A2810D140F22E63F04AF1A1F8
:10524000FC4813F0A0FCFB4813F066FCAFF244608E
:1052500013F062FC09202D901CE02C9880B140F2E4
:105260003463E74AF4A1F34813F08DFCF14813F0DE
:1052700053FCAFF2686013F04FFC2C982D9009E0BE
:10528000FBF790FD08B1FBF7D1FD03E00120FBF730
:105290008BFF00BF00BFFBF703FF07287ED03098CD
:1052A000032802D03098012837D103F017FCC0B191
:1052B00009F0FAFFFBF754FD002325224FF42F716C
:1052C0000320FBF7F9FC25231A46E1490620FBF7EA
:1052D000F3FC1320FBF768FF4FF44870DD490860CA
:1052E00052E003F0F5FB98B309F0DEFFFBF738FD61
:1052F000092325224FF496710320FBF7DDFC2523BB
:105300001A46D3490620FBF7D7FC1320FBF74CFFC6
:105310004FF44870CF49086036E003F0DFFBC0B1BE
:1053200009F0C2FFFBF71CFD252300224FF4617139
:105330000C20FBF7C1FC25231A46C5490620FBF7C4
:10534000BBFC1320FBF730FF4FF44870C1490860E5
:105350001AE003F0CDFBB8B109F0A6FFFBF700FDA2
:10536000252309224FF496710C20FBF7A5FC252379
:105370001A46B7490620FBF79FFC1320FBF714FFE2
:105380004FF44870B3490860FCF734FD2B902B981C
:1053900000F01100B8B30020AF4900E024E208702B
:1053A000AE49087040F27E63954AADA1A14813F062
:1053B000EAFBA04813F0B0FBAFF2B07013F0ACFB07
:1053C0003198032802D03198042803D100202B996A
:1053D000FEF76CFFFBF7C4FC3098032802D030982E
:1053E000012822D106F0B6FC70B11E231A46C8214E
:1053F0000720FBF761FC122325224FF42F710320B5
:10540000FBF75AFC06E022E01E2300220720279922
:10541000FBF752FC8F480068B0F5FA7F13DB8D482C
:10542000006832388B4908600DE01E231A464FF49D
:1054300096710720FBF740FC252312224FF42F71B1
:105440000220FBF739FC00202699FBF7FFFD2B9883
:1054500000F0220000287CD000207F4908707F499E
:1054600008700FF0ABFE04904FF4D363644A82A13E
:105470000090704813F087FB6E4813F04DFBAFF6B9
:10548000740013F049FB3198032802D031980428A6
:1054900003D100202B99FEF709FFFBF761FC309840
:1054A000032802D0309801280ED11E231A464FF44B
:1054B00096710720FBF700FC122325224FF42F7171
:1054C0000320FBF7F9FB40E02B9800F0110070B1CE
:1054D0001E231A464FF496710720FBF7EDFB252398
:1054E00012224FF42F710220FBF7E6FB16E006F0C4
:1054F0000DFC68B11E231A46C8210720FBF7DCFB10
:10550000252312224FF42F710220FBF7D5FB05E073
:1055100000231E2207202799FBF7CEFB4D48006889
:10552000B0F5FA7F04DB4B4800683238494908601F
:1055300048485AA102683F4813F025FB3D4813F044
:10554000EBFAAFF6381013F0E7FA00202699FBF7D4
:105550007DFD2B9888B10B9878B100200B9004F05A
:10556000DFFF0490BDF91000ADF8640004F0D8FF2F
:105570000490BDF91200ADF8660001F04BFB1E90DF
:105580001E98D8B301F046FB1E901E98B0B348A1F8
:1055900028481E9A13F0F7FA264813F0BDFAAFF622
:1055A000941013F0B9FA1E980F2808D1109828BB50
:1055B000012010904FF4FA70FBF7BEFB88E0FBF778
:1055C0006FFD06280FD0FBF76BFD03280BD0FBF710
:1055D00067FD022807D0FBF763FD0C2803D0FBF71B
:1055E0005FFD082874D11E981F903098032802D0C0
:1055F0003098012866D10120099065E068E061E0FB
:1056000021A201082573282564293A6172726976FE
:1056100065645F666C6167203D3D204D545F484185
:105620004C464152524956454420627265616B2195
:10563000200A0000D47800202573282564293A61C7
:105640007272697665645F666C61673220210A0058
:10565000FEFFFF1FB0000020BC000020BD000020A6
:105660002573282564293A4C65667442756D70650A
:1056700072547269670A00002573282564293A521A
:105680006967687442756D70657254726967204D00
:105690006F7665203D2025640A00000077616C6C00
:1056A0005F64697374616E63653A25640A00000083
:1056B000636C6966665F7374617475733A25640A16
:1056C00000000000022009904FF4C870FBF734FB83
:1056D0002B9808B91E98E8B3002012900D9818B9BD
:1056E0001598401CC0B2159001200D90FBF7D8FC16
:1056F0000490049A3199159840F2EC63CDE90012B8
:105700000290F14AF1A1FE4813F03DFAFC4813F073
:1057100003FAAFF6083013F0FFF9159819282EDDBB
:10572000FBF72CFB0BF016FDC8B140F2F263E64A22
:10573000F4A1F34813F027FAF14813F0EDF9AFF6AE
:10574000343013F0E9F909202D900A2001F0D4FD3E
:10575000052000E027E005F059FF00F0D9BE092040
:105760002C9040F2FB63D84AEAA1E54813F00BFA0B
:10577000E34813F0D1F9AFF66C3013F0CDF92C9863
:105780000A2812D14FF4E063CF4AE6A1DC4813F0B7
:10579000FAF9DB4813F0C0F9AFF6903013F0BCF91A
:1057A00009202C9001E000200D9005F09BFF0E9049
:1057B0000E98C8B105F0B4FF0E98402814D00E988A
:1057C000FCF73EFBFBF7DAFA0A202C9040F212734A
:1057D000BD4AE1A1CA4813F0D6F9C94813F09CF9B3
:1057E000AFF6D83013F098F9FBF75AFC06287DD1B4
:1057F0001198401CC0B211901198042876DD002049
:1058000011903098042802D0309802286FD10FF000
:105810002DFBDC4908600846008800B2ADF8520054
:1058200006F04CFA1D9004F07BFE0246D649049027
:10583000D448FEF786FF08BB1D9800F0200020B179
:10584000D04800686430CF4908601D9800F080009F
:1058500020B1CC4800689630CA4908601D9800F015
:10586000020020B1C7480068C830C64908601D98CA
:1058700030B14FF44870C449086001E00020129034
:10588000C048006864214843BF49096890FBF1F0B3
:10589000BC4908600846006864380860084600682B
:1058A000BA490968401ABA490860084600680321E5
:1058B00090FBF1F0B6490860B24800680C2190FBFB
:1058C000F1F02530B2490968052291FBF2F1084454
:1058D000B0490860AB4800680A2190FBF1F0C0F1C4
:1058E0002500AB49096891FBF2F101E065E314E0A2
:1058F000401AA9490860084600682B2805DD0C20DD
:10590000A44908602B20A4490860A24800682B28FD
:1059100002DD2B209F49086081E00FF095FA99493C
:1059200008600846008800B2ADF8520006F0C6F9DB
:105930001D9004F0F5FD0246934904909148FEF74E
:1059400000FF08BB1D9800F0200020B18D480068C2
:10595000C8308C4908601D9800F0800020B189484B
:1059600000689630874908601D9800F0020020B159
:10597000844800686430834908601D9830B14FF452
:1059800048708149086001E0002012907D4800685D
:10599000642148437C49096890FBF1F0794908602B
:1059A0000846006864380860084600687749096856
:1059B000401A7749086008460068032190FBF1F01F
:1059C000734908606F4800680C2190FBF1F02530A6
:1059D0006F490968052291FBF2F108446E4908609D
:1059E000684800680A2190FBF1F0C0F12500684981
:1059F000096891FBF2F1401A6649086008460068A0
:105A00002B2805DD0C20644908602B2061490860C3
:105A1000614800682B2802DD2B205F490860594847
:105A200000685A4908602B215A48006805F00EFDAD
:105A3000584908602B215848006805F007FD564971
:105A40000860544800780490084600780390049950
:105A50000FF0F6FC0321169890FBF1F201FB120007
:105A600078BBBDF9520014282CDA474800680E2193
:105A700090FBF1F0BDF94C10BDF94E20891A884217
:105A800020DA414800680E2190FBF1F0BDF94E107C
:105A9000BDF95020891A884214DA3B4800680E216B
:105AA00090FBF1F0BDF95010BDF95220891A8842DF
:105AB0007BDA6420ADF84C00ADF84E00ADF8500034
:105AC0006CE07EE071E0000021A20108257328252A
:105AD00064293A77616C6C5F747970653A2564204B
